:100000000C947F030C94B7030C94B7030C94B703C0
:100010000C94B7030C94B7030C94B7030C94B70378
:100020000C94B7030C94B7030C948D1F0C94491FC8
:100030000C948A200C94B7030C94B7030C94B70368
:100040000C94B7030C94B7030C94B7030C94B70348
:100050000C94B7030C9466200C94B7030C94B7036C
:100060000C94B7030C94B7030C94B7030C94B70328
:100070000C94B7030C94B7030C94B7030C94B70318
:100080000C94B7030C94B7030C94B7030C94B70308
:100090000C94B7030C94B7030C94B7030C94B703F8
:1000A0000C94B7030C94B7030C94B703167C1E0092
:1000B0001F0020002100220023002400250026002C
:1000C00027002D002E0031002B0014001A0008001C
:1000D000150017001C0018000C00120013002F0060
:1000E00030002A00215204001600070009000A000F
:1000F0000B000D000E000F0033003400280000003C
:10010000E1001D001B000600190005001100100091
:10011000360037003800E50024520000E000E3001C
:10012000E2000000000000002C00000000000000C1
:100130003900E600E400350035003A003B003C00A1
:100140003D003E003F0040004100420043004400AB
:100150004500010001000000000000000000000058
:1001600000004B0052002A000000010001000100C5
:100170000100000000004C0000004D004A0050004B
:1001800051004F0022520000010000000100000059
:1001900000000000000000004E0000000000000011
:1001A00000000100010000000100235201000000D6
:1001B0000000000028000000000000000100010015
:1001C0000100010001000100010001000100010027
:1001D0000100010001000100010001000100010017
:1001E00001000000D200CD00D900D40000004B0077
:1001F0005200D200000001000100010001000000D7
:10020000CF00CE00D0004D004A00500051004F00FA
:10021000000001000100000001000000D300D10037
:10022000DA00D5004E00D100D3000000000001002C
:1002300001000000010001000100000000000000BA
:10024000D1000000000000000100010001000100D9
:10025000010000000000000000000000000000009D
:10026000000000000000000000000000010000008D
:1002700000000000000000000000A90000000000D5
:100280004600000000000100010000000000000026
:10029000000000000000AC00AE00AB000000000059
:1002A000010000000100000000000000000000004C
:1002B000AA00A800000000000000010001000000EA
:1002C000010001000100000000000000000000002B
:1002D000000000000100010001000000007C00009F
:1002E000000000000000000000000000000000000E
:1002F00000000000000000000000000000000000FE
:1003000000000000000000000000000000000000ED
:1003100000000000000000000000000000000000DD
:1003200000000000000000000000000000000000CD
:1003300020782278217824782378267825782878E0
:1003400027782A78297800000100000000000000CA
:10035000000000000000000000000000000000009D
:1003600000000000000000001E0F0500047F3F1F7A
:10037000643214643214783C1E1E140A0500010114
:100380000101010101010102020202020202020254
:100390000303030303030303040404040404040524
:1003A00005050505060606060607070707070808E8
:1003B0000808090909090A0A0A0B0B0B0C0C0C0D99
:1003C0000D0D0E0E0E0F0F0F101011111112121332
:1003D000131414151516161717181819191A1A1BAD
:1003E0001B1C1D1D1E1E1F2020212222232424250C
:1003F0002626272829292A2B2C2D2D2E2F30313245
:1004000032333435363738393A3B3C3D3E3F404154
:1004100042434445464748494A4C4D4E4F5051533C
:1004200054555658595A5B5D5E5F616264656668F3
:10043000696B6C6D6F7072737577787A7B7D7E8077
:1004400082838587888A8C8E8F91939596989A9CC3
:100450009EA0A2A3A5A7A9ABADAFB1B3B5B7BABCD7
:10046000BEC0C2C4C6C9CBCDCFD1D4D6D8DBDDDFA8
:10047000E2E4E7E9EBEEF0F3F5F8FAFDFFFFAA7F1F
:1004800055402223252628292A2C2D2F303233357A
:1004900036383A3B3D3E4042434547494A4C4E5030
:1004A00051535557595A5C5E6062646668696B6D5A
:1004B0006F71737577797B7D7F81838587898A8C5E
:1004C0008E90929496989A9C9E9FA1A3A5A7A8AA65
:1004D000ACAEAFB1B3B4B6B8B9BBBCBEBFC1C2C39A
:1004E000C5C6C7C9CACBCCCDCED0D1D2D2D3D4D534
:1004F000D6D7D7D8D9D9DADADBDBDBDCDCDCDCDC5D
:10050000DDDDDDDDDCDCDCDCDCDBDBDBDADAD9D934
:10051000D8D7D7D6D5D4D3D2D2D1D0CECDCCCBCAC2
:10052000C9C7C6C5C3C2C1BFBEBCBBB9B8B6B4B3E8
:10053000B1AFAEACAAA8A7A5A3A19F9E9C9A98967E
:100540009492908E8C8A89878583817F7D7B797751
:100550007573716F6D6B6968666462605E5C5A5931
:1005600057555351504E4C4A4947454342403E3DF2
:100570003B3A3836353332302F2D2C2A2928262580
:10058000232205010902A10185020901A100050933
:100590001901290815002501950875018102050139
:1005A000093009311581257F9502750881060938C2
:1005B0001581257F950175088106050C0A380215FD
:1005C00081257F950175088106C0C005010980A1BC
:1005D00001850319012AB700150126B70095017599
:1005E000108100C0050C0901A101850419012AA090
:1005F00002150126A002950175108100C0050109B0
:1006000006A1018506050719E029E71500250195D2
:1006100008750181020507190029EF1500250195CC
:10062000F0750181020508190129059505750191EB
:1006300002950175039101C005010906A101050795
:1006400019E029E71500250195087501810295013A
:10065000750881010507190029FF150026FF00957F
:100660000675088100050819012905150025019561
:100670000575019102950175039101C009023B00C6
:10068000020100A0FA090400000103010100092190
:10069000110100012244000705810308000109043B
:1006A0000100010300000009211101000122B60030
:1006B00007058203200001120100020000000875F6
:1006C0006F746801000102000112033100750070AF
:1006D000003600300068007400650000001A033125
:1006E00000750070006B006500790062006F0061AA
:1006F0000072006400730000000403090400112468
:100700001FBECFEFDAE0DEBFCDBF04B603FE18C0D8
:100710008091330390913403A0913503B091360357
:100720008730904BA740B04B59F41092330310928E
:1007300034031092350310923603E0E0F8E3099594
:1007400023E0A4E9B1E001C01D92A333B207E1F7B1
:1007500011E0A0E0B1E0ECEBFDE402C005900D92E9
:10076000A439B107D9F70E94B1200C9488260C94C3
:100770000000482F20912F039091F60257E0291393
:1007800002C080E0089530E0529FF001539FF00DC9
:100790001124E950FD4F8181681306C08081481300
:1007A00003C085818111EECF2F5F3F4F2770E7CFC8
:1007B000E8EDF0E080818E7F80831092E20010925D
:1007C000DA001092E100A0EEB0E08C9181608C9391
:1007D00080818F77808319BCA7EDB0E08C918E7FEC
:1007E0008C9380818F7E80831092DF020895209108
:1007F000E4003091E50095E6A9012091EC00822FFC
:10080000817020FF06C08091E80080FF06C080E074
:1008100008952091E80022FD1AC08091EC028823FF
:1008200089F0853089F08091EB0085FD0FC0209123
:10083000E4003091E50042175307F9F29150E1F6D8
:1008400084E0089582E0089583E0089581E00895AA
:100850008091EE0287FF13C08091E80082FF06C0FE
:100860008091E8008B778093E80004C08091EC02CF
:100870008111F2CF08958091EC028823D9F3809101
:10088000E80080FFF8CF8091E8008E77ECCF982FBA
:100890009093E900242F762F50E0891731F0709162
:1008A000EC002091ED005091F00021FD07C09F5F0A
:1008B000973071F78093E90081E008953091EB0063
:1008C0003E7F3093EB003091ED003D7F3093ED00A3
:1008D0003091EB0031603093EB007093EC0020938B
:1008E000ED005093F0002091EE0027FDE0CF80E076
:1008F0000895B0E0A0E0EFE7F4E00C94F424C8ED34
:10090000D0E088818F7E8883E7EDF0E08081816090
:10091000808384E082BF81E08093DF0288818E7FC4
:10092000888302EE10E0F80110821092DA0081EE66
:10093000C82ED12CF601108288818F778883888118
:100940008068888388818F7D888319BC1092EC022F
:100950001092ED021092EB021092EA0290EEE92E54
:10096000F12CF70180818B7F80838881816088836F
:1009700042E060E080E00E944704F60180818E7FC3
:100980008083F8018081816080838081886080839A
:10099000F70180818E7F8083888180618883CDB7D5
:1009A000DEB7E8E00C941025FC018091F4029091F0
:1009B000F50286179707A0F06115710529F490914B
:1009C000E8009E779093E80090E06115710551F47E
:1009D000911108C08091E80082FF34C080E0089542
:1009E000BC01F2CF8091EC028823C1F18530C1F1C6
:1009F0008091E80083FD30C08091E80082FDEACF5D
:100A00008091E80080FFE1CF8091F3002091F20017
:100A1000382F6115710519F02830310558F091E033
:100A20002830310509F090E02091E8002E772093DE
:100A3000E800CBCF81918093F100615071092F5F65
:100A40003F4FE7CF8091EC02882341F0853041F0A1
:100A50008091E80083FFBECF81E0089582E0089591
:100A600083E008958091E10208959C014FB7F894C6
:100A70008091DB029091DC02A091DD02B091DE0258
:100A80004FBF821B930B08952FB7F8948091DB0220
:100A90009091DC02A091DD02B091DE022FBF08959B
:100AA00090911C019923D1F09091D80297FF16C024
:100AB000E82FE695E695E695EE31E0F4F0E0E256B3
:100AC000FE4F282F277081E090E001C0880F2A9503
:100AD000EAF780959281892382830895E8E9F1E01D
:100AE0009191891303C0DF0111971C9291E0EE39B7
:100AF000F907B1F7089590911C019923C1F09091E5
:100B0000D80297FF14C0E82FE695E695E695EE31FA
:100B1000F8F4F0E0E256FE4F877021E030E001C0CB
:100B2000220F8A95EAF78281822B82830895A8E9B1
:100B3000B1E0EFEF90E02D91821751F0EF3F19F403
:100B4000211101C0E92F9F5F9630A9F7EF3F09F40B
:100B500008950E2E000CFF0BEA56FE4FE6CFA3E0E1
:100B6000B0E0E5EBF5E00C94FA242091D602309148
:100B7000D70228173907A1F09093D7028093D602A5
:100B8000E091D402F091D502309751F024E029830E
:100B90009B838A830084F185E02DCE01019609951F
:100BA0002396E2E00C941625A3E0B0E0EAEDF5E030
:100BB0000C94FA242091D2023091D30228173907DD
:100BC000A1F09093D3028093D202E091D402F091ED
:100BD000D502309751F023E029839B838A830084D8
:100BE000F185E02DCE01019609952396E2E00C9463
:100BF0001625E091D402F091D502309729F00190AA
:100C0000F081E02D0995089580E008950E94440543
:100C10009C019091CE028091CF02982B21F03093CD
:100C2000CB022093CA029091D0028091D102982BDE
:100C300021F03093C9022093C802E091D402F091D0
:100C4000D502309749F082E08093CC020680F7818C
:100C5000E02D8CEC92E0099508958091C70280FD0B
:100C600016C081FD16C082FD16C08091C602882381
:100C7000A1F0883280F428E0829FC001112468E24C
:100C800070E00E94C124862F672B39F0089582E01E
:100C9000089584E0089588E0089581E008958091A2
:100CA000C70280FD14C081FD14C082FD16C0809172
:100CB000C502882381F08E3180F420E5829FC00137
:100CC00011246EE170E00E94C124862F089584E112
:100CD000089588E2089588E0089580E50895282F12
:100CE00035EB2303C001112497FF04C080589109FC
:100CF000892F089580589F4FFBCF8F929F92AF927C
:100D0000BF92EF92FF920F931F93CF93DF938430A4
:100D1000B0F5811135C090918000977F909380004D
:100D2000A0918600B0918700282F30E00E9479269C
:100D300023E030E040E050E00E94572689019A010C
:100D400080918600909187006CE070E00E94AD2455
:100D500060177107C8F0C80169E070E00E94AD2417
:100D600070938D0060938C00DF91CF911F910F9154
:100D7000FF90EF90BF90AF909F908F90089583E089
:100D8000909180009860CACF8091860090918700F2
:100D9000E0908600F0908700E0918600F091870057
:100DA000C6E0D0E0BE010E94AD24060F171F211D32
:100DB000311D4801590185E0880C991CAA1CBB1CF7
:100DC0008A95D1F7C701BE010E94AD249F0150E072
:100DD00040E0260F371F411D511DC501B4010E947F
:100DE000572649015A01E0918600F0918700CA0117
:100DF000B9010E9483249B01AC01DF010E944426BB
:100E00009B01AC01C501B4010E9483242FE096959B
:100E10008795779567952A95D1F70091860010916F
:100E2000870030E020E0061717072807390708F089
:100E300097CF609186007091870092CF282F220F64
:100E4000220F220F9091C4029770922B9093C402AC
:100E5000987F21E009F420E09091C40220FB90F9F2
:100E60009093C4020E947D060895FA01811101C089
:100E7000FB010995089508958091BC02982F9C7FED
:100E800029F4837084608093BC0208958C3AE8F35F
:100E90008370886AF8CFAF92BF92DF92EF92FF9291
:100EA0000F931F93CF93DF93082F162FE901E42FA1
:100EB000F0E0E358FC4F611110C0E4915E2F4E2F1B
:100EC0004983E8835A83DF91CF911F910F91FF905F
:100ED000EF90DF90BF90AF900895E62EF12C4491F3
:100EE000D42EE42FF0E026E0829FC00111242FEFE2
:100EF00030E0B9010E94AD24802F90E0880F991F47
:100F000055E5569FD001579FB00D11248A1B9B0BAE
:100F1000982F990F890F5901AE18BF08AE9ED001C6
:100F2000AF9EB00DBE9EB00D11245B2F189F8001A7
:100F30001124012F11275901A01AB10AAE9E800178
:100F4000AF9E100DBE9E100D11245901A81AB108B4
:100F5000AE9CC001AF9C900DBE9C900D1124892FBA
:100F60009927281B390B2E9FC0012F9F900D3E9F64
:100F7000900D1124E92F62307105A1F050F4611534
:100F8000710509F49DCF6130710581F0EB2F512F70
:100F900097CF6430710569F080F06630710509F40F
:100FA0008FCFF4CFE42F4B2F592F8ACFE42F412F2F
:100FB00087CFEB2F542F492F83CF4B2F5D2DE12F60
:100FC0007FCF80E00895F894E82FE295EF70F0E08D
:100FD00031A1282F2F7081E090E001C0880F2A9561
:100FE000EAF7982F9095932391A392A1892B82A33E
:100FF000789408959091D80292FF10C041E0282F74
:101000002471243009F040E031E0282F2871283085
:1010100009F030E0431711F02CE0822793FF10C055
:1010200041E0282F2471243109F040E031E0282FDD
:101030002871283109F030E0431711F02CE08227A5
:101040003091D90230FF10C051E0282F217121309A
:1010500009F050E041E0282F2871283009F040E0E5
:10106000541711F029E0822731FF10C041E0282FEA
:101070002171213109F040E031E0282F2871283119
:1010800009F030E0431711F029E0822794FD877EB4
:10109000089582389105B9F1B0F48133910509F4CE
:1010A0007DC048F48932910509F46DC08A329105FA
:1010B00009F47BC008958533910509F45FC0893335
:1010C000910509F10895833E9105D9F138F4803EE8
:1010D000910529F1823E910579F10895863E9105A9
:1010E000D9F1873E910509F43EC0843E910541F552
:1010F0002091D90221FF24C08091D80284FD19C01B
:1011000087EE90E008952091D802237009F05AC02C
:101110002091D90223FF14C089E290E00895209124
:10112000D80220FD38C03091D90230FF09C024FF19
:1011300043C090E080E008952091D80222FDF7CFCF
:1011400008952091D80222FD3AC03091D90230FD95
:1011500039C024FFF5CFEDCF2091D80223FFF0CF87
:1011600024FDE7CFCDCF2091D80223FD2EC03091B2
:10117000D90231FFEECF84EE90E008952091D8029D
:1011800025FFDECFC9CF2091D80225FD21C02091B7
:10119000D90223FFD5CF89E390E0D2CF2091D802A6
:1011A00026FFCECF8AE290E008952091D80226FF54
:1011B000C7CF81E390E0089583EE90E0089582EE3A
:1011C00090E0089580EE90E0089586EE90E0089516
:1011D00085E390E00895972F7530B8F46E30A8F449
:1011E0008530B0F470E02EE0929F600D711D1124E7
:1011F000FB0196E4899FE00DF11D1124EE0FFF1F06
:10120000E455FF4F85919491089580E090E0089512
:1012100081E0FCCF1F93CF93DF930E944908EC013C
:10122000C11580E5D807F0F5C11580E4D80708F0AE
:101230009CC0C03ED10520F5CD3CD10508F082C050
:10124000C83AD10578F4C53AD10508F073C0C13069
:10125000D10519F1209709F1C430D105F0F4D0E09F
:10126000C0E01BC0C33CD105D0F7C85AD0E0CC0FBA
:10127000DD1FC05EDE4F0990D881C02DD4640DC043
:10128000C11580E2D80708F0D1C0C11581E0D807A8
:1012900008F05AC0C83ED10510F7CE01DF91CF91BA
:1012A0001F910895C03682E5D80718F5C03482E54D
:1012B000D80708F06BC0C03282E5D80708F05FC0DD
:1012C000C11582E5D80708F497C02C2F26952695DE
:1012D00080E2289F900111248C2F8370C1E0D0E020
:1012E00002C0CC0FDD1F8A95E2F7C22BD32BDD683D
:1012F000D4CFC03A82E5D80760F4C03882E5D80779
:1013000008F459C0CF71D0E0DC2FCC27C46FD06A6D
:10131000C4CFC03C82E5D80708F462C0C03E82E575
:10132000D80708F09CCFDC2FCC27CC27DF71C06F0B
:10133000D06AB3CFC55AD0E0C35EDE4FC881D0E0DB
:10134000D064ABCFD065A9CF8D2F0E94FA07182F9C
:10135000CE0199270E944908C12FD0E0DC2FCC276D
:10136000CC27DF71C82BD92B98CFCE0199270E94AB
:101370004908CC27DF70C82BD92BD06A8ECFCF710C
:10138000D0E0DC2FCC27C16FD06A87CF2C2F2695D9
:101390002695277080E2289F900111248C2F83705E
:1013A000C1E0D0E002C0CC0FDD1F8A95E2F7C22B6E
:1013B000D32BDC6872CF2C2F26952695277080E2E0
:1013C000289F900111248C2F8370C1E0D0E002C0CF
:1013D000CC0FDD1F8A95E2F7C22BD32BDA685DCFE5
:1013E0008C2F8F710E94FA07C82FD0E0DC2FCC27FA
:1013F000CC27DF71D06251CF8C2F8F710E94FA07FA
:1014000055E0D695C7955A95E1F7CF70D0E0DC2F1F
:10141000CC27282F30E084FF05C044E0220F331F83
:101420004A95E1F7C22BD32BD06937CF8D2F8F711F
:101430000E94FA07182FCE0199270E944908C12F50
:10144000D0E0DC2FCC27CC27DF71C82BD92BD2CF13
:10145000809590911602982390931602089580919A
:1014600016029091ED01892B9091EC01992391F056
:10147000892B90911C01992371F09091D80297FFCC
:101480000AC09EE120EA31E040E0915040F4411171
:101490001092EC01089596E028E931E0F5CFF901CA
:1014A00051919F01552389F34F5FEFCF80912F0317
:1014B0009091F602981301C008958F5F8770FACF5C
:1014C000B0E0A0E0E6E6FAE00C94F3247C010091A1
:1014D0002802109129028091170290911802082B7E
:1014E000192BCFE0D0E0CC24C394D12CBC2EC60164
:1014F0000C2E02C0880F991F0A94E2F780239123D3
:10150000892B49F4219790F7B12C8B2DCDB7DEB7FD
:10151000E9E00C940F25B7018C2F0E94EB080E9484
:101520000A09019779F3F1CFCF93DF93EC010E9481
:10153000600ABE010E94EB080E940A09DF91CF9168
:101540000895953078F58E3068F5E82FF0E08EE05C
:10155000989FE00DF11D11249E2F977083E0F69562
:10156000E7958A95E1F7EE0FFF1FEE0FFF1FE0549E
:10157000FE4F50E040E080E0219130E0092E02C0B3
:10158000369527950A94E2F721703327042E01C07F
:10159000220F0A94EAF7822B4F5F5F4F44305105C8
:1015A00059F7089580E00895953098F58E3088F5C4
:1015B000E82FF0E08EE0989FE00DF11D11248E2FB2
:1015C000877041E001C0440F8A95EAF783E0F69501
:1015D000E7958A95E1F7EE0FFF1FEE0FFF1FE0542E
:1015E000FE4F30E020E070E05191DF011197CB0118
:1015F000022E02C0969587950A94E2F78170819534
:101600008527842385278C932F5F3F4F2430310516
:1016100059F708959093290280932802089521E0B4
:1016200030E002C0220F331F8A95E2F720953095F3
:101630008091280290912902822393230E940A0B11
:1016400008959091EB01809589238093EB01282FD9
:10165000277069F4891759F09091D90292FF07C059
:101660008695869586950E940F0B1092EB01089542
:1016700021E030E002C0220F331F8A95E2F780910B
:10168000280290912902822B932B0E940A0B089525
:1016900090931802809317020895FC01248122235D
:1016A000C1F0808191810E94940A92959F7096303A
:1016B00091F058F4925F9F70923058F4803F19F087
:1016C00030F4883E30F481E008959A5FF4CF843F8F
:1016D000D1F380E00895883EB0F3813FD1F7F3CF96
:1016E0004091CE029091D0022091D102662309F45C
:1016F00069C0942B922B2091CF02922B31F098E06D
:101700009093C50291E09093C6028D3C41F40E94F3
:101710004F0681958093CF020E94060608958E3C65
:1017200019F40E944F06F6CF8F3C31F40E944F0609
:1017300081958093CE02F0CF803D19F40E944F0630
:10174000F8CF893D29F40E942D068093D002E4CF82
:101750008A3D21F40E942D068195F7CF8B3D31F40F
:101760000E942D0681958093D102D6CF8C3D19F42D
:101770000E942D06F8CF9FE2980F983070F4815D9B
:10178000990B21E030E001C0220F8A95EAF78091A1
:10179000CD02822B8093CD02BFCF8D3D31F480915D
:1017A000C70281608093C702B7CF8E3D21F480913C
:1017B000C7028260F7CF8F3D09F0AECF8091C7029C
:1017C0008460F0CF8D3C59F48091CF0287FF0DC02B
:1017D0001092CF0241110BC01092C50208C08E3C7E
:1017E00081F48091CF0218169CF3442381F08091FC
:1017F000D0029091D102892B09F08ECF1092C602AF
:101800008BCF8F3C49F447FFF0CF1092CE028091EE
:10181000CF028111ECCFE0CF803D19F41416ACF368
:10182000E4CF893D29F4191604F71092D002DDCFD8
:101830008A3D19F497FFD9CFF8CF8B3D29F427FFC4
:10184000D4CF1092D102D1CF8C3D19F41216CCF323
:10185000CCCF9FE2980F983090F4815D990B21E0F6
:1018600030E0B90102C0660F771F8A95E2F7CB011D
:1018700080959091CD0289238093CD02B6CF8D3D86
:1018800031F48091C7028E7F8093C702AECF8E3D28
:1018900021F48091C7028D7FF7CF8F3D09F0A5CF4E
:1018A0008091C7028B7FF0CF81FD03C02E9A81E02B
:1018B00008952E98FCCFA6E0B0E0E1E6FCE00C94A1
:1018C000F92449835A8349815A819923A1F022231B
:1018D00091F0CA010E94600A182F682F89819A81AD
:1018E0000E94D40A69817A81812F0E94EB08269692
:1018F000E3E00C941525CA010E94A10A182FF2CF2B
:101900000F931F93CF93DF938B01EA019091EC0229
:10191000943061F58093E9008FEF9091E800815059
:1019200095FD06C095ED9A95F1F700008111F5CF70
:101930008091E80085FF1AC00E94F703811111C051
:101940008091E80085FD06C08091E8008E77809345
:10195000E800F2CFF80181918F018093F100219787
:1019600079F78091E8008E778093E800DF91CF913E
:101970001F910F91089543E050E0BC0182E00E9466
:10198000800C089546E050E0BC0182E00E94800C8B
:10199000089540E250E0BC0182E00E94800C08956E
:1019A000CF93DF93EC0148E050E0BC0181E00E945E
:1019B000800C88E0FE01A2EEB2E001900D928A95C3
:1019C000E1F7DF91CF91089581E08093E00080E21C
:1019D0008093D8001092C9008FE19EE40197F1F73F
:1019E00000C0000087E090EBDC018093330390930C
:1019F0003403A0933503B093360388E19CE00FB61F
:101A0000F894A895809360000FBE90936000FFCF7C
:101A10008091BC0280FD0AC0ECE4F2E011821082E9
:101A20001282339652E0E637F507C1F7809A31B358
:101A30003E7F21B321604FB7F8948CE492E0FC0123
:101A40005191CF0168E021BB000000C057FF31BBBE
:101A5000550F000000C000C000C031BB00C06A9537
:101A600091F7F2E086379F0751F74FBF8FE594E07B
:101A70000197F1F700C000000895EF92FF920F93D5
:101A80001F93CF93DF938C01CCE4D2E0F12CE12CB7
:101A9000F80194816091BE028091BD02F7E0EF16DB
:101AA000F104ECF49923E9F09E014091BF020E94F9
:101AB0004B072FEFE21AF20A23968EE0E816F104A4
:101AC00039F70E94080DF801848190E00196817039
:101AD00099278483CDB7DEB7E6E00C9412259923CD
:101AE00019F39E0140E0E3CFB0E0A0E0EAE7FDE0BB
:101AF0000C94F024EC014C81042F10E09801D801E3
:101B00000E9479269B01AC010E9444264B015C0196
:101B1000E0E2F0E0E01BF10BA5E5B0E0AC019B01D9
:101B20000E9444266B017C019F01DF010E94DB249F
:101B30009B01AC010E944F269B01AC01280D391D71
:101B40004A1D5B1DC701B6010E945726F22E822F47
:101B500090E039E23F1598F143E0249F9001112471
:101B600035952795122F10959CE4C92E92E0D92E19
:101B700000E085E5E82EEF188E2D01FD8F2D9601F2
:101B8000412F6091BE020E944B070F5F53E0C50ECC
:101B9000D11C0E3089F70E94080D9C8181E09923A9
:101BA00019F0903219F48FEF80931B0180911B0183
:101BB000890F8C83CDB7DEB7ECE00C940C2525E5BE
:101BC00030E0A901481B590BCA019A01220F331FAB
:101BD000280F391F37FFC4CF2F5F3F4FC1CF0F935F
:101BE0001F93CF93DF93CCE4D2E0FE0111821082E9
:101BF0001282339682E0E637F807C1F710E000E082
:101C000080914A02082E000C990B081719078CF1D5
:101C100080911A01082E000C990B801791074CF146
:101C20009E014091BF026091BE028091BD020E9460
:101C30004B070F5F1F4F23960E30110509F70E94C7
:101C4000080D8091190190914A02980F90934A02D1
:101C500020911A01280F20931A01121614F49D30B6
:101C60001CF0819580931901DF91CF911F910F9105
:101C70000895198218821A82DCCFB0E0A0E0E3E474
:101C8000FEE00C94F324FC018281DD24DA9480FDD3
:101C900002C0DD24D3940CE412E0D0E0C0E02EE0DA
:101CA000B22EF80111821082128294E0E92EF12CFA
:101CB000C12C809149028C0D8F30C4F16B2D0E9494
:101CC0009F24892F082E000C990B8C179D0791F4E7
:101CD0008091BF028E9DA0018F9D500D11245595BE
:101CE00047955595479598016091BE028091BD0238
:101CF0000E944B07CD0CF1E0EF1AF108D1F62196C6
:101D00000D5F1F4FCE30D10561F60E94080D809106
:101D1000490291E0D91210C081110CC08DE080936E
:101D20004902CDB7DEB7E9E00C940F2587FFCACF93
:101D3000825FC8CF8150F3CF90E00196BE010E9430
:101D4000C124EDCFEF92FF921F93CF93DF93EC016D
:101D50008CE4E82E82E0F82E10E08C81970140910F
:101D6000BF026091BE02810F0E944B071E5E83E09E
:101D7000E80EF11C1C3F89F70E94080D9A818C81A6
:101D800090FF08C08F5F8C83DF91CF911F91FF90F0
:101D9000EF9008958150F7CF9091BC0290FF0CC056
:101DA000ECE4F2E0818360834283339692E0E6378D
:101DB000F907C1F70E94080D0895A3E0B0E0E3EE33
:101DC000FEE00C94F8248C0180914B0281110AC032
:101DD0009E012F5F3F4F4FEF6FEF0E944B078A81AD
:101DE00080934B02F8016481613069F080914B026D
:101DF00040E0662361F040E0623011F440914B0214
:101E000080E060E004C060914B0240E080E00E940E
:101E1000CC0EF801848190E0019663E070E00E94AE
:101E2000C12484832396E4E00C941425A3E0B0E05D
:101E3000ECE1FFE00C94FA249091BC0290FF0AC000
:101E40009E012F5F3F4F0E944B074B8169818A8122
:101E50000E94CC0E2396E2E00C941625CF93DF93DC
:101E6000EC01ECEBF2E0438162818C810E94160F61
:101E70008C818F5F8C83DF91CF910895CF93DF9317
:101E8000EC01EC81F0E0EE57FB4F4491ECEBF2E01B
:101E9000628181810E94160F8C818F5F8C83DF911C
:101EA000CF910895682F86E090E00E94F125089573
:101EB000B0E0A0E0EEE5FFE00C94EC24FC016280D1
:101EC000448081E08483E2E8F4E07490E1E0F5E0AE
:101ED000E4910091BF020695015810E0000F111F18
:101EE000012F1127C6E7D2E02CE4C22E22E0D22E29
:101EF0003CEB832E32E0932EAA24AA94B12C5524D5
:101F00005A94E719EE2EF12C82E0861530F080917C
:101F1000BD0288838091BE028983411016C01B8256
:101F20001A8296014A81698188810E944B07259611
:101F300083E0C80ED11C8C169D0631F70E94080D57
:101F4000CDB7DEB7E0E10C9408258B818823E9F05A
:101F500081508B83859DC00111246C8170E00E94AB
:101F6000AD24FB01FF27EE57FB4F8491E82FE719C3
:101F7000E59DC0011124B7010E94AD248091BF02EC
:101F8000689FB00111247A83CCCF0E94A325B501AC
:101F90000E94C1248017910724F682E0861588F4F8
:101FA0000E94A325B5010E94C12488830E94A32515
:101FB0002091BE022695622F70E00E94C124280F56
:101FC00029831A828091BF02893C20F088EC8C839F
:101FD0008B83A7CF8431D8F784E1F9CFB0E0A0E0BC
:101FE000E4EFFFE00C94F02449015A016B017C01FD
:101FF0000E943C078401A4016A2D7B2D88E090E0BB
:102000000E94032694014A2D5B2DB601C70100E210
:102010000E943C25622F84E290E00E94F125CDB71A
:10202000DEB7ECE00C940C25A3E0B0E0EAE1F0E1CF
:102030000C94ED24F82E762EE42E622E9091BC02A4
:1020400090FF2FC0E92FE695E695AE2FB0E0A75997
:10205000BE4F8C91809347029C7F943031F59E0156
:102060002F5F3F4F8F2D0E944B074B8169818A81E3
:102070000E94CC0EF092BD027092BE02E092BF02AE
:10208000662079F02091BC026091C0027091C1027B
:102090003F2D472D5E2D8091C2029091C3020E9478
:1020A000EE0F2396EFE00C940925823019F4E090AE
:1020B000BF02E0CF863019F4F090BD02DBCF89304B
:1020C000D9F38931B9F6E9518E2F8170582EE695F2
:1020D000F0E0E358FB4FE4910E2F10E08CE4C82EA3
:1020E00082E0D82EB12CA12C9EE0892E912CC50126
:1020F000B4010E94AD248F2D511013C0860F96019C
:102100004E2D672D0E944B07A00EB11E83E0C80E16
:10211000D11C86E7C81682E0D80649F70E94080D50
:10212000A9CF861BECCFECEBF2E0438128E0421B09
:1021300008F440E021E0628181810E94141008953A
:10214000ECEBF2E0438128E0420F08F44FEF21E08E
:10215000628181810E9414100895ECEBF2E06281AB
:1021600028E0621B08F460E021E0438181810E9445
:1021700014100895ECEBF2E0628128E0620F08F49D
:102180006FEF21E0438181810E9414100895ECEBF0
:10219000F2E0818121E04381628188500E94141025
:1021A0000895ECEBF2E0818121E043816281885F58
:1021B0000E94141008958091C002882319F0815064
:1021C0008093C0022091BC023091BD024091BE02BA
:1021D0005091BF026091C0027091C1028091C20211
:1021E0009091C3020E94EE0F08958091C002833047
:1021F00018F48F5F8093C0022091BC023091BD0221
:102200004091BE025091BF026091C0027091C10224
:102210008091C2029091C3020E94EE0F08959091A6
:10222000BC0290FF35C09370811133C094609093CD
:10223000BC02662391F02091BC023091BD02409116
:10224000BE025091BF026091C0027091C1028091A4
:10225000C2029091C3020E94EE0F6091BC0266958B
:10226000669570E04BE050E08EE091E00E94B3256F
:10227000892BB9F01092480281E08093440220E05B
:102280004091BF026091BE028091BD020E94141075
:1022900008958B3210F0986ACACF880F880F982B58
:1022A000C6CF81E0809348020E9444059093420289
:1022B00080934102E1CF8091BC0286958695815042
:1022C00009F48AE261E00E940F1108958091BC0236
:1022D000869586958F5F8B3208F081E061E00E94E1
:1022E0000F1108959091BC0290FF09C096959695A4
:1022F000981728F0961718F40E946611089561E067
:102300000E940F110895ECEBF2E085E080831182CA
:102310008FEF828383831482758125E030E04FEF55
:102320005FEF60E0868197810E94EE0F08959091A3
:10233000D90292FB222720F9281779F080FB92F925
:102340009093D9026091D8027091D90284E090E014
:102350000E940F2682E00E94210B089580911C01AB
:10236000882359F18091D80287FF27C00E942F0A45
:1023700080939F0140E250E06EEE71E08EE991E0C3
:102380000E94C025892BC1F080E2EEE9F1E0AEEEBB
:10239000B1E001900D928A95E1F7E091D402F091BD
:1023A000D502309749F086E080939E010480F58144
:1023B000E02D8EE991E0099508950E942F0A8093FF
:1023C000960148E050E06EE072E086E991E00E94FC
:1023D000C025892B89F388E0E6E9F1E0AEE0B2E0C0
:1023E00001900D928A95E1F7E091D402F091D50227
:1023F000309711F30280F381E02D86E991E0DBCF85
:102400001092160280911C01882339F18091D80224
:1024100087FF23C0E0EAF1E08EE1DF011D928A959B
:10242000E9F790E080E00E94D40590E080E00E940F
:10243000AF051092ED010E94AE1186E0ECECF2E0E7
:10244000DF011D928A95E9F71092C5021092C6022B
:102450001092C7020E9406060895E8E9F1E086E0BE
:10246000DCCFAAE2B0E0E7E3F2E10C94F9248EEECF
:1024700092E02091F100FC012193CF01F2E0863F30
:102480009F07B9F78091EF02833009F470C0B8F468
:10249000813009F447C0823009F4B1C08091E8006E
:1024A00083FF7EC28091EE029091EF029A3008F095
:1024B00077C2E92FF0E0E657F94D0C94D5248A3025
:1024C00009F48CC08B3009F46FC0893039F78091E2
:1024D000EE02813219F78091F2029091F302029795
:1024E000E8F68091E800877F8093E8008091E8001B
:1024F00082FF38C09091F3008091F200029731F48E
:102500008091F100813011F0863021F48091F1004A
:102510008093E1028091E8008B778093E8000E942D
:102520002804BCCF8091EE02813A09F0B7CF8091A8
:10253000E800877F8093E8008091F2029091F30297
:10254000892B61F468E082EE92E070E00E94D4048E
:102550008091E8008B778093E800A0CF60E090E066
:1025600080E0F3CF8091EC028111C0CF97CF8091B2
:10257000EE02813A09F092CF8091F2029091F3023B
:10258000892B09F08BCF8091E800877F8093E8004A
:102590008091E80080FFFCCF80911C018093F100C6
:1025A0008091E8008E77B9CF8091EE02813209F0F8
:1025B00075CF8091F2029091F302892B09F06ECFD2
:1025C0008091E800877F8093E8000E942804809132
:1025D000F00280931C010E94001260CF8091EE02F5
:1025E000813209F05BCF8091E800877F8093E8001B
:1025F0000E9428048091F1028093E0024FCF8091E5
:10260000EE02813A09F04ACF8091E800877F8093FB
:10261000E8008091E80080FFFCCF8091E002BECF0F
:10262000803899F0823809F0BBC18091F2028F7036
:10263000873008F0B5C18093E9008091EB0085FBFD
:10264000882780F91092E90006C08091EA029091F3
:10265000EB02911182609091E800977F9093E800DF
:102660008093F1001092F1008091E8008E7794C180
:10267000882309F482C1823009F092C18091F0026E
:10268000811185C18091F2028F702FEF280F2630C3
:1026900008F086C18093E9002091EB0020FF77C10C
:1026A000933031F48091EB0080628093EB006FC136
:1026B0009091EB0090619093EB0021E030E001C03D
:1026C000220F8A95EAF72093EA001092EA0080919F
:1026D000EB008860EACF811163C11091F0021F778F
:1026E0008091E3008078812B8093E3008091E80063
:1026F000877F8093E8000E9428048091E80080FF93
:10270000FCCF8091E30080688093E30082E01111A8
:1027100083E08093EC0244C18058823008F040C1CD
:102720008091F0029091F1028C3D23E09207A1F597
:1027300083E08A838AE289834FB7F894DE01139697
:1027400020E03EE051E2E32FF0E050935700E491A7
:1027500020FF03C0E295EF703F5FEF708E2F90E097
:10276000EA30C0F0C7968D939D932F5F243159F7BF
:102770004FBF8091E800877F8093E8006AE270E0B5
:10278000CE0101960E94D4048091E8008B7780935B
:10279000E80006C1C096E7CF4091F2025091F302E3
:1027A000292F33272330310509F444C078F521302F
:1027B000310509F46FC08BE390E0ECE7F6E02230DE
:1027C000310509F0EDC02091E800277F2093E80053
:1027D0002091F4023091F5028217930708F49C01CE
:1027E00040E02115310509F064C0411162C08091BB
:1027F000E80082FDC9CF8091EC02882329F2853060
:1028000019F28091E80083FFF2CFBECF213231056B
:10281000A9F12232310509F0C3C04115510509F46F
:1028200043C04130510509F0BBC086EB90E0E2E8BF
:10283000F5E0C9CF992781309105C1F0009759F093
:10284000029709F0ADC0E9ECF6E0E4918E2F90E03C
:10285000E9ECF6E007C0E9EFF6E0E4918E2F90E0B6
:10286000E9EFF6E0009709F49BC0ADCFEDEDF6E09F
:10287000E4918E2F90E0EDEDF6E0F4CF4115510597
:1028800071F04130510509F08BC089E090E0E7EA32
:10289000F6E099CF82E190E0E7EBF6E094CF89E0B3
:1028A00090E0EEE8F6E08FCF84E490E0E8E3F6E035
:1028B0008ACF8091EC02882309F466CF853009F431
:1028C00063CF8091E80083FD5FCF8091E80082FDB7
:1028D0008ECF8091E80080FF84CF9091F3008091AB
:1028E000F2002115310519F08830910550F041E0D2
:1028F000089709F040E08091E8008E778093E80027
:1029000070CF44914093F1003196215031090196E6
:10291000E8CF803809F044C08091E800877F809339
:10292000E8008091ED028093F1009ECE811138C0C5
:102930001091F0021230A0F58091E800877F80931B
:10294000E8001093ED020E942804112311F084E0A6
:1029500005C08091E30087FDFACF81E08093EC020F
:1029600042E061EC81E00E94470442E261EC82E0D7
:102970000E9447048091EC0213C08091F0028130E4
:1029800079F481E0933009F080E08093EB021092BB
:10299000E9008091E800877F8093E8000E94280486
:1029A0008091E80083FF0AC08091E800877F8093D0
:1029B000E8008091EB0080628093EB00AA96E3E050
:1029C0000C9415250E9400122FEF84E39CE0215007
:1029D00080409040E1F700C0000088E19CE00FB625
:1029E000F894A895809360000FBE90936000FFCF8D
:1029F000882321F00E94280A0E94AE11089588239E
:102A000039F090911602982B909316020E94AE1105
:102A10000895882309F456C0823879F40E94F90594
:102A200081FF50C089E30E947B050E94AE1189E3BB
:102A30000E9450050E94AE110895833859F40E94F7
:102A4000F90580FF3FC083E50E947B050E94AE111F
:102A500083E5EECF843859F40E94F90582FF32C035
:102A600087E40E947B050E94AE1187E4E1CF9CEFD2
:102A7000980F913AE8F290E2980F983050F48770EE
:102A800091E001C0990F8A95EAF7892F0E94280AE0
:102A9000D1CF9BE5980F933028F490E080E00E941E
:102AA000D405089598E5980F9B3128F490E080E0D4
:102AB0000E94AF05089593E3980F933118F460E0F6
:102AC0000E94700B0895CF93C82F8823C9F08238D5
:102AD000C9F40E94F90581FD13C089E30E947B05BA
:102AE0000E94AE112FEF87EE93E02150804090407E
:102AF000E1F700C0000089E30E9450050E94AE117A
:102B0000CF9108958338A1F40E94F90580FDF8CF94
:102B100083E50E947B050E94AE112FEF81EE94E0C9
:102B2000215080409040E1F700C0000083E5E4CFF1
:102B30008438A1F40E94F90582FDE2CF87E40E9467
:102B40007B050E94AE112FEF81EE94E02150804072
:102B50009040E1F700C0000087E4CECF8CEF8C0FEF
:102B6000813A88F580911C01882301F18091D80277
:102B700087FF1CC0EC2FE695E695E695F0E0E2565F
:102B8000FE4F828190E04C2F477021E030E002C080
:102B9000220F331F4A95E2F782239323892B79F082
:102BA0008C2F0E9450050E94AE1109C0E8E9F1E0A7
:102BB0008191C817A9F321E0EE39F207C9F78C2FEC
:102BC0000E947B059BCF80E28C0F883068F4C77031
:102BD00021E030E001C0220FCA95EAF78091160289
:102BE000822B809316028ACFEBE5EC0FE33040F4A2
:102BF000F0E0E35EFE4F808190E00E94D40580CF3C
:102C0000E8E5EC0FEB3150F4F0E0EE0FFF1FE05E73
:102C1000FE4F808191810E94AF0572CF83E38C0FBC
:102C2000833108F06DCF61E08C2F0E94700B68CF6C
:102C30000F931F93CF93DF93C62FD42F022FFC0146
:102C400085818823A9F0609332030E944405909304
:102C5000310380933003C77081E001C0880FCA95AB
:102C6000EAF70E94FF14DF91CF911F910F91089511
:102C700080913203681335C0809130039091310305
:102C80000E943505883C910560F510E21D0FCD17B7
:102C9000B9F080E28C0F883040F4C77081E001C049
:102CA000880FCA95EAF70E94F814183048F481E0BA
:102CB0009D2F977001C0880F9A95EAF70E94FF1424
:102CC000802F0E946315802F0E940915183058F636
:102CD000D77081E001C0880FDA95EAF70E94F814F6
:102CE000C2CFC77081E001C0880FCA95EAF7F6CF5E
:102CF000B0E0A0E0EEE7F6E10C94F2248C01FC01D8
:102D00008481882309F45DC021E040815181628182
:102D1000738195810E945B0CEC01F8018581882309
:102D200009F4DBC4C230F8E7DF0709F481C0A0F47E
:102D3000C11538E7D30779F1C13088E7D80709F41E
:102D400045C0FE01E851FC47E730F10508F0A9C095
:102D5000EC56F94D0C94D524C43098E7D90709F402
:102D600053C0B0F1C530F8E7DF0759F79091C402BE
:102D7000892F8695869586958F5F8F7197708430A1
:102D800008F06EC0880F880F880F892B8093C402CB
:102D90008091C40225C083E00E941E078091C40276
:102DA0000E94520F8091EB01877059F0F8018581E4
:102DB000882339F08091D90282FF03C082E00E940B
:102DC000210BCDB7DEB7EAE00C940E2580E0E4CF0E
:102DD0008091C402982F987F79F088508093C40224
:102DE000887F91E009F490E08091C40290FB80F923
:102DF0008093C4020E94520F8091C40286958695EA
:102E000086950E947D06CECF8091C402982F96951C
:102E100096959695933040F49F5F990F990F990F6F
:102E20008770892B8093C4028091C4028160E0CFB7
:102E30008091C40280FF07C08E7F8093C4020E94ED
:102E4000520F80E0DECF80FDADCF81608093C40261
:102E5000813019F489E08093C4028091C402CACF02
:102E60009093C40295CF26E241EE61EEC8010E9424
:102E7000181698CF27E245EE65EEF8CF26E241EE30
:102E800060EEF4CF27E245EE64EEF0CF26E241EEAD
:102E900062EEECCF27E245EE66EEE8CF28E241E0B5
:102EA000EBCF10923203CE019057839708F0E1C325
:102EB00084E090E00E94DB259093D9028093D802B1
:102EC000FE01E150F047E232F10520F4E556F94DFC
:102ED0000C94D5248091D80281608093D80295C04B
:102EE0008091D90288608093D9028FC08091D802E6
:102EF0008260F3CF8091D8028460EFCF8091D802B6
:102F00008860EBCF8091D9028160EDCF8091D902AA
:102F10008260E9CF8091D8028061DFCF8091D802B2
:102F20008062DBCF8091D8028064D7CF0E940012EC
:102F30008091D8028068D1CF8091D8028C60CDCFAB
:102F40008091D9028360CFCF8091D8028E7FC5CF88
:102F50008091D902877FC7CF8091D8028D7FBDCF66
:102F60008091D8028B7FB9CF8091D802877FB5CF6F
:102F70008091D9028E7FB7CF8091D9028D7FB3CF58
:102F80008091D8028F7EA9CF8091D8028F7DA5CF66
:102F90008091D8028F7BA1CF0E9400128091D8022D
:102FA0008F779BCF8091D802837F97CF8091D90272
:102FB0008C7F99CF8091D80282FB992790F921E0EC
:102FC000922790FB82F990FB83F987CF8091D902F9
:102FD000982F909591708E7F892B90FB81F983CFEC
:102FE0009091D802892F8F7B96FF806476CF0E94C4
:102FF00000129091D802892F97FB87F980586DCFE6
:1030000061E08EE090E00E94F1256091D80270911D
:10301000D90284E090E00E940F260E940012C2CEE6
:1030200060E0EFCF9091D802892F8F7E94FF80616E
:1030300054CF9091D802892F8E7F90FF81604DCF21
:103040009091D902892F877F93FF88604CCF85E3C9
:103050001FC38091BE01811104C089E20E94500506
:1030600019C385E3FBCF8091BC0280FF19C0282FD4
:103070002E7F2093BC023091BD024091BE02509140
:10308000BF026091C0027091C1028091C202909112
:10309000C3020E94EE0F109248020E94080D82CED9
:1030A00081608093BC0261E0869586950E940F1135
:1030B00079CE4BE551E166E671E10E94350772CEAB
:1030C00046E651E16BE571E1F8CF47EC50E161ED87
:1030D00070E1F3CF41ED50E167EC70E1EECF4DEAE6
:1030E00050E16AEB70E1E9CF4AEB50E16DEA70E143
:1030F000E4CF43E950E160EA70E1DFCF40EA50E11C
:1031000063E970E1DACF4BED50E165EF70E1D5CFC7
:1031100045EF50E16BED70E1D0CF61E081E0C6CFCB
:1031200065E082E00E9472113DCE68E086E0FACF51
:103130006EE089E0F7CF64E18FE0F4CF67E185E1ED
:10314000F1CF61E088E1B2CF62E289E1EBCF61E0EB
:1031500083E2ACCF6AE285E2E5CF0E9400122FEF56
:1031600034E38CE0215030408040E1F700C00000A3
:103170000E94E40C6FEF7FEF90E080E00E940F264A
:103180000E94E2148091D90282FB882780F991E0A5
:1031900089270E949711F8018581C081D1818823F8
:1031A00009F44CC0CE010E94600AF82E682FCE01AF
:1031B0000E94D40ABE018F2D0E94EB080E940A09CA
:1031C000D82EC92FA82EF801C580B680B2943FE052
:1031D000B3228091EB01877001F1DC2DCC20F1F05E
:1031E000892F807F803469F080E28D0D8830A8F0CF
:1031F000892F807E803229F4F1E0FD1570F4BB2028
:1032000061F08091D90282FF08C082E00E94210B08
:103210008091EB018770D1E009F0D0E0FC2EF294B0
:103220002FE0F2222BE02F1508F46EC0EF2DF0E016
:10323000E354F94D0C94D52480E0ABCFCE010E942D
:10324000A10AF82EB7CF3C2F3F70E32EC07F19F0B4
:10325000E29490EFE922CC20B9F0EE2069F080E210
:103260008D0D883010F0A11009C080911602E82A57
:10327000E09216020E94AE118D2D44C08091ED01A6
:10328000E82AE092ED01F6CF8D2D0E940915EE207F
:10329000D9F180E28D0D883010F0A11004C08E2D80
:1032A0000E94280A06C0E0948091ED01E822E09295
:1032B000ED010E94AE1128C08C2F8F70E82EC07FC8
:1032C000C03219F0E29480EFE822AA2059F091E090
:1032D000A91609F47BC0CC2009F487C0BB2009F4EF
:1032E00049C0CACF8091D90282FD40C0CC20C1F133
:1032F000EE2039F080911602E82AE09216020E9430
:10330000AE1180E00E9463152F2D2850330B24301E
:10331000310520F40E94F9050E94540CDD23A9F028
:103320008091EB0180FD11C0F8011582869586958C
:1033300086950E94380BC8010E9478168091EB0197
:103340008695869586950E940F0B20E0F8014081B6
:10335000518162817381848195810E945B0C31CDA2
:1033600080E00E940915EE2079F299CFCC20A1F0DF
:10337000B11004C08E2D0E94FF14C6CFE1E0BE1232
:10338000C3CF8091EC019E2D9823E91609F4BCCFA0
:10339000E82AE092EC01B8CFB110B6CF8E2D0E9492
:1033A000F8149091EC018E2D892329F08E2D8095B3
:1033B00089238093EC018091BF019E2D982309F40D
:1033C000A3CFE094E822E092BF019ECFCC2029F069
:1033D000F5E0FB1508F498CFCDCF24E02B1508F4C9
:1033E00093CF8E2D0E94F8148FCFBB20D1F339E3F9
:1033F000A31209C08FEF97EEE3E081509040E040C8
:10340000E1F700C000008D2D0E9409157DCF8C2FA3
:1034100086958695837069F0813009F075CF8D2D82
:103420009C2F9370C11002C080E090E00E94AF0515
:103430006BCF8D2D9C2F9370C11002C080E090E067
:103440000E94D40561CF6C2D8D2D0E94700B5CCF36
:103450008C2F837009F03FC0C11056CF4D2D42957F
:1034600046954770440F440F2D2D2F7030E0042EE9
:1034700002C0220F331F0A94E2F790E080E0D4FEEE
:1034800009C08FE090E002C0880F991F4A95E2F7CB
:1034900080959095C695C695C370C23099F078F422
:1034A0004091170250911802C13039F0822B932BB2
:1034B000842395230E94480B27CF242B352B822B66
:1034C000932BF8CF822B932B209117023091180267
:1034D00082279327EFCF8695CC2011F08C2F817017
:1034E000882309F411CF4D2D429546954770440F1E
:1034F000440F2D2D2F7030E0042E02C0220F331FF9
:103500000A94E2F790E080E0D4FE09C08FE090E0FA
:1035100002C0880F991F4A95E2F780959095C6954D
:10352000C695C370C23099F078F44091280250914A
:103530002902C13039F0822B932B842395230E94DA
:103540000A0BE2CE242B352B822B932BF8CF822B28
:10355000932B209128023091290282279327EFCFC5
:10356000CF70CC2029F08C2F0E94380B8D2D03CFEB
:103570008D2D0E94F8148C2F0E940F0BC5CE8D2D1F
:10358000F2EFAF1699F1FA1570F020EFA216D1F014
:1035900031EFA31691F0CC2009F45BC0B1106CCED2
:1035A0008C2F8F7127C093EFA91639F1E4EFAE127B
:1035B000F2CF8091D90282FD2EC08C2F8F71CC204A
:1035C000D9F218C0CC2069F0F4E0FB1508F49CCEC9
:1035D000CF7181E090E002C0880F991FCA95E2F791
:1035E000B8CF25E02B1508F48FCEF2CF8C2F8F713A
:1035F000C110C2CF0E94380B87CE90E080E0CC2073
:1036000009F49DCFCF7181E090E002C0880F991F2F
:10361000CA95E2F794CFCC2089F0CF718C2F0E940D
:10362000380B8091D90282FF07C038E0C39FC001E8
:10363000112483608093EB018C2FDCCF81E00E940A
:10364000210B81E08B1508F05FCE82E00E94210BF8
:103650005BCEBB2059F0893309F0D5CE9FEFE7EE62
:10366000F3E09150E040F040E1F7CBCE8C2F8F712A
:1036700083CFC631FCE7DF0781F4809116028A7A96
:1036800091E009F490E09093BE018111E0CC89E2D1
:103690000E947B050E94AE1185CBC3303CE7D30767
:1036A00009F468CD50F4C1159CE7D90709F455CD4C
:1036B000C130DC4709F464CD6ECDCB35FCE7DF07C4
:1036C00009F4BACDCC352CE7D20709F45BCDCA3565
:1036D000DC4709F060CD81E05CCDFE01E851FC479C
:1036E000E730F10508F434CBC6312CE7D20709F4F2
:1036F000B0CC809116028272FE01E052F847E531AB
:10370000F10508F048CDE753F94D0C94D524CF933B
:10371000DF938091EA01807F09F04DC08091E9013B
:10372000882309F448C0E0912F035091F602C0911C
:10373000E501D091E4016091E6017091E70147E075
:103740005E17C9F18E2F90E0E49FF0011124E9503B
:10375000FD4F2481222391F1489FF001499FF00DF4
:103760001124DF01A950BD4F11962C9111972C13F4
:1037700025C02C912D1322C015962C91159721113F
:103780001DC012962D913C91261B370B283C31050C
:10379000A8F48091EA018F7080618093EA01E35080
:1037A000FD4F80818F708061808384EE91E00E9464
:1037B00078160E94560ADF91CF910895FC01319648
:1037C000E770BECFA4E1B0E0E8EEFBE10C94F0249A
:1037D0008C0186E0F801DE011F9601900D928A951A
:1037E000E1F7F8018481E58094EEA92E91E0B92EED
:1037F0009091E801911128C0882319F1EE20F1F091
:10380000C8010E944D0BF82E8823C1F087E0F80113
:10381000D50101900D928A95E1F78091E801813000
:1038200031F48091E4019091E5010E94940A0E9494
:10383000871B8F2D6496ECE00C940C25C8010E9428
:103840007816FF24F394F5CFD080C18082809380D6
:10385000F090E9012091E6013091E701A401421BBB
:10386000530BFF2009F4D9C0483C510508F092C021
:103870008823F9F29091E5018091EA01282F207FB9
:1038800009F056C0C91214C09091E401D91210C0B9
:10389000E11048C08F7080618093EA0184EE91E06E
:1038A0000E9478168091EA01F8018683F12CC1CF3D
:1038B000E11038C06C2D8D2D0E94B9036C2D8D2D1B
:1038C0000E94B903E82E8111F1CFDF86C88A8F8567
:1038D00098890E94940A292F22952F70243058F439
:1038E0009F70223088F0992399F0F8019681907F9B
:1038F00079F4FE2C9ECF2A5F2F70223068F0C80129
:103900000E947816EF2CF5CF992311F0882389F3C4
:10391000805E883070F3F3CF803F58F3815F83304F
:1039200070F7E7CF8091EA0181608093EA01BECF12
:10393000C91207C09091E401D91203C0EE2009F426
:103940008DC0C8010E944D0B882309F477CFEE206B
:1039500009F474CF8091EA01803288F02091E4016B
:103960003091E501398728879B868A869091E80106
:103970009C871D868E87CE0108960E94781687E068
:10398000F801A4EEB1E001900D928A95E1F70E9452
:10399000871B57CF9091EA01292F207F51F484EEA5
:1039A00091E00E94781687E0F50111928A95E9F777
:1039B0007DCF882309F43DCF8091E5018C1110C0A3
:1039C0008091E401D8120CC0E1100AC09683C801AE
:1039D0000E94781687E0F50111928A95E9F729CFC0
:1039E000C8010E944D0B882309F428CFEE2009F46A
:1039F00025CF8091EA01803210F22091E4013091CC
:103A0000E5013A8329839C828B829091E8019D8312
:103A10001E828F83CE010196B0CF483C5105D0F66F
:103A2000882309F40ECFFE2CEE2009F407CF8091F5
:103A3000E5018C1120C08091E401D8121CC0809156
:103A4000EA0180FD0FC0982F907F61F08683903F40
:103A500031F0982F907F905F8F70892B8683C801FB
:103A60000E94781687E0F801A4EEB1E001900D9273
:103A70008A95E1F7DECEC8010E944D0B81117FCF00
:103A80008091EA0181608093EA01C8010E94781662
:103A9000D0CEABE1B0E0EFE4FDE10C94F8244E8B26
:103AA0005F8B688F798F8A8F9B8F192F911110925E
:103AB000ED011D8A86E0FE017696DE011F960190DB
:103AC0000D928A95E1F70A8D002341F021E04F85A0
:103AD000588969897A89C8010E945B0C0B8B1C8B01
:103AE00087E0FE013F96DE01189601900D928A95BF
:103AF000E1F7CE0108960E94E21B81112AC087E0FF
:103B0000FE013896DE01119601900D928A95E1F73B
:103B10008C858823F1F02091F60230E0C9010196EE
:103B20008770992740912F0348171906E9F097E00D
:103B3000929FD001939FB00D1124A950BD4FFE015B
:103B4000319601900D929A95E1F78093F6020E94CA
:103B5000560A17E080912F039091F602891312C044
:103B60006B96E4E00C9414250E9400121092F60269
:103B700010922F0387E0E4EEF1E0DF011D928A95B9
:103B8000E9F7E7CF819FC001112489509D4F0E9422
:103B9000E21B882329F380912F0390E00196877020
:103BA000992780932F03D6CFA6E0B0E0EAEDFDE1A0
:103BB0000C94F8240E9444058C0180911902909184
:103BC0001A028017910781F019821A820E94440517
:103BD000682F49815A81792F80E090E00E94491D29
:103BE00010931A02009319022696E4E00C9414250F
:103BF000AAE0B0E0EEEFFDE10C94EC248E010F5F43
:103C00001F4F8AE0F80111928A95E9F796E5E92EAF
:103C100091E0F92E68012BE5422E21E0522E662418
:103C20006394712C49E6842E41E0942EF701819132
:103C30007F018F3F09F445C0F894E82FE295EF70BB
:103C4000F0E021A18F70A30102C0440F551F8A9597
:103C5000E2F7CA01922F982B91A392A18095892314
:103C600082A3789400C0EBE5F1E021E030E0B12CD4
:103C7000A12C41914F3F09F44BC0A42FA295AF70E6
:103C8000B0E090968C9190E04F7002C0959587952A
:103C90004A95E2F780FD3CC0C901A82AB92A220F43
:103CA000331F8E169F0629F7F701319780818F3FCA
:103CB00011F00E94E30750EA5A95F1F7F601B1823C
:103CC000A082F2E0CF0ED11C4E145F0409F0AECFFB
:103CD0004AE050E0B8018EE192E00E94C025892BB5
:103CE000E1F08AE0F801AEE1B2E001900D928A9530
:103CF000E1F781E080931D020E94440590931C022D
:103D000080931B0210E0812F2A96E0E10C94082595
:103D100090E080E0C2CF10E01FC010911D0211237F
:103D200089F380911B0290911C020E943505059732
:103D300048F34AE050E06EE172E08BE292E00E94CC
:103D4000C025892B41F38AE0EEE1F2E0ABE2B2E07C
:103D500001900D928A95E1F710921D02D4CFA8E050
:103D6000B0E0E5EBFEE10C94FA2466EE7EEF90E025
:103D700080E00E940F2660E082E090E00E94F12542
:103D800081E090E0909318028093170261E083E055
:103D900090E00E94F12560E074E184E090E00E94F0
:103DA0000F2660E086E090E00E94F1256FEF87E04B
:103DB00090E00E94F12540E050E0BA0188E090E0F8
:103DC0000E94032660E084E290E00E94F12560E01A
:103DD00087E190E00E94F12560E08CE090E00E9495
:103DE000F12560E08DE090E00E94F12519821A82B1
:103DF0001B821C821D821E821F82188648E050E0B2
:103E000068E170E0CE0101960E94E12540E050E0BB
:103E1000BA0180E290E00E94032640E050E0BA013F
:103E20008FE090E00E94032640E050E0BA0183E179
:103E300090E00E9403262896E2E00C94162590E07C
:103E400080E00E94DB25863E9E4F51F00E94AF1E0F
:103E50008091C402847089618093C4020E94520FD1
:103E600086E090E00E94CD258093C402803220F04D
:103E7000877088618093C4029091C402892F8170F9
:103E800090FF04C0892F8695869586950E947D06B1
:103E900008951F920F920FB60F9211242F933F9304
:103EA0004F935F936F937F938F939F93AF93BF9342
:103EB000CF93DF93EF93FF93D091E900DF70809170
:103EC000EC00C82FC17080FDC0E81092E90080911D
:103ED000F000877F8093F00078940E943112109256
:103EE000E9008091F00088608093F000CD2BCF70C6
:103EF000C093E900FF91EF91DF91CF91BF91AF9116
:103F00009F918F917F916F915F914F913F912F91F1
:103F10000F900FBE0F901F9018951F920F920FB623
:103F20000F9211242F933F934F935F936F937F933F
:103F30008F939F93AF93BF93EF93FF938091E10093
:103F400082FF09C08091E20082FF05C08091E100FC
:103F50008B7F8093E1008091DA0080FF24C0809104
:103F6000D80080FF20C08091DA008E7F8093DA0035
:103F70008091D90080FF9DC080E189BD82E189BD2B
:103F800009B400FEFDCF81E08093EC028091DF0256
:103F9000811109C00E94D8030E9479048091E20037
:103FA00084608093E2008091E10080FF17C08091DF
:103FB000E20080FF13C08091E2008E7F8093E200D8
:103FC0008091E20080618093E2008091D80080625D
:103FD0008093D80019BC85E08093EC028091E100C9
:103FE00084FF2BC08091E20084FF27C080E189BD5F
:103FF00082E189BD89B5982F917080FFFBCF8091B8
:10400000D8008F7D8093D8008091E1008F7E8093CF
:10401000E1008091E2008F7E8093E2008091E200D7
:1040200081608093E2008091ED02882309F447C00B
:1040300084E08093EC028091EC028091E10083FFA8
:1040400027C08091E20083FF23C08091E100877F39
:104050008093E10082E08093EC021092ED02809167
:10406000E1008E7F8093E1008091E2008E7F80935B
:10407000E2008091E20080618093E20042E060E033
:1040800080E00E9447048091F00088608093F000F7
:10409000FF91EF91BF91AF919F918F917F916F9120
:1040A0005F914F913F912F910F900FBE0F901F90F6
:1040B000189519BC1092EC021092DF0274CF809117
:1040C000E30087FD93E09093EC02B5CF78941F92C4
:1040D0001FB61F9211248F939F93AF93BF9380912C
:1040E000DB029091DC02A091DD02B091DE0201962C
:1040F000A11DB11D8093DB029093DC02A093DD0231
:10410000B093DE02BF91AF919F918F911F901FBE20
:104110001F9018951F921FB61F9211248F939F9383
:10412000AF93BF938091DA02811113C08091DB02BB
:104130009091DC02A091DD02B091DE024196A11DBA
:10414000B11D8093DB029093DC02A093DD02B0935B
:10415000DE02BF91AF919F918F911F901FBE1F9064
:104160001895CDB7DEB72C970FB6F894DEBF0FBE0B
:10417000CDBF85B7806885BF85B7806885BF84B7A8
:10418000877F84BF0FB6F894A895809160008861FE
:1041900080936000109260000FBE80E890E00FB640
:1041A000F89480936100909361000FBE81EE97E0D8
:1041B00090939501809394010E94D8030E94790402
:1041C0008091E20084608093E20078948091EC0218
:1041D0008823A1F01091E9001F709091EC00892FC5
:1041E000817090FD80E8182B1092E9008091E80022
:1041F00083FD0E9431121F701093E90082E084BD9C
:1042000093E095BD9AEF97BD80936E0006E511E0AF
:104210009BE5E92E91E0F92ED8018D918D018F3F1C
:1042200011F00E94E307E016F106B1F70BE511E08B
:10423000F80181918F018F3F11F00E94E307F1E0B7
:1042400009361F07A9F78AE0EBE2F2E0DF01282F29
:104250001D922A95E9F7EEE1F2E0DF011D928A95C1
:10426000E9F790E080E00E94DB25863E9E4F11F04A
:104270000E94AF1E82E090E00E94CD25809335021F
:1042800084E090E00E94DB259093D9028093D802CD
:104290000E94F81DEFEFF6E721E0E150F0402040EA
:1042A000E1F700C000000E94F81D80912B0280FF02
:1042B00008C06FEF7FEF90E080E00E940F260E9421
:1042C000E40C83E090E00E94CD2590E00E94480B32
:1042D000269A2E9A279A2F988AE08093800089E167
:1042E000809381008FEF9FEF9093870080938600EB
:1042F0000E941F1F0E941F1F80912A02811177C0F8
:1043000090E080E00E94DB25863E9E4F21F00E94D7
:10431000AF1E0E94831188E090E00E94D5254B01DA
:104320005C0184E290E00E94CD25282F30E040E03F
:1043300050E060E070E080E090E000E20E94212523
:10434000282939294A295B292093BC023093BD02D0
:104350004093BE025093BF026093C0027093C102AB
:104360008093C2029093C3022C7F89F50E9483112F
:1043700088E090E00E94D5256B017C0184E290E00A
:104380000E94CD25282F30E040E050E060E070E052
:1043900080E090E00E942125B22FA32FF42FE52F7B
:1043A0005B0197018601BC29A12BFE29E32BB09369
:1043B000BC02A093BD02F093BE02E093BF026093E3
:1043C000C002B092C1028093C2029093C3020E94C5
:1043D0003C07109248028091BC0280FF05C060E05B
:1043E000869586950E940F1181E080932A0284E0D1
:1043F00091E09093D5028093D40280E4682E82E00D
:10440000782E44244394222423948091EC0200E1EA
:1044100012E1853009F49DC00E94F81D16E3A12E1B
:1044200012E0B12E0BE2802E02E0902ED401F501B5
:10443000219131918D919D916E167F0609F497C05F
:1044400028173907A9F3512CD4010D911D914D0165
:10445000F501C190D1905F01C016D10659F1312C00
:10446000EE24E394F12CC026D126C6018E219F2193
:10447000892BB1F03F8258860E9444059A8789872C
:104480002B8691E098012E213F21232B09F490E007
:104490009C874F81588569857A858B850E94491D47
:1044A0003394EE0CFF1CFEE03F12DFCFF501329794
:1044B00011830083539425E05212C6CF8FB7F8942E
:1044C0004091DB025091DC026091DD027091DE02CE
:1044D0008FBF53C08091EC02843051F180E00E9484
:1044E0001E0780E00E94540C1092DA02E8E1F0E02E
:1044F00020E40FB6F894A895E09360000FBE2093D7
:10450000600083B7817F846083BF83B7816083BF8E
:104510007894889583B78E7F83BF0FB6F894A8955B
:1045200080916000886180936000109260000FBEEF
:104530008091EB02882369F00E94F81DEBE2F2E023
:1045400081919191892B09F0B9C182E0E533F80797
:10455000B9F78091EC02853009F4BCCF0E940012BB
:104560000E941F1F0E94F9050E94540C55CF281766
:10457000390709F068CF0E94D41D80914802882332
:10458000D9F180914702E091BC02E695E695E81BDF
:10459000E0934302823009F019C1F0E0E758FC4F84
:1045A000E4910E2F10E0FEE3EF2EFFE0FF2E80914E
:1045B0004402882361F0109244020E9444059093C3
:1045C00042028093410210924602109245020E94DC
:1045D0004405E0914102F09142028E1B9F0B8F3FF8
:1045E0009F4750F4E00FF11FF0934202E093410225
:1045F00081E492E0F701099586E0ECECF2E0DE015F
:10460000119601900D928A95E1F7D090CD02F0902D
:10461000CE020091CF02E090D0021091D102109210
:10462000CE021092CF021092D0021092D102802FAF
:104630008F2909F445C08091CA029091CB020E9453
:1046400035059C019091C502992309F457C1253184
:104650003105B0F19F3F19F09F5F9093C502FF2095
:1046600059F00E944F069FEF1F140CF491E0899FB0
:10467000802D11248093CE02002359F00E944F0612
:1046800091E010160CF09FEF899F802D11248093EC
:10469000CF028091CE02882399F0C090CF02CC2027
:1046A00079F00E946F06882309F4FCC08093CE0243
:1046B0008C2D0E946F06882309F4F7C08093CF02E7
:1046C0008E2D812B09F445C08091C8029091C902BA
:1046D0000E9435059C019091C602992309F409C1F5
:1046E00021353105B0F19F3F19F09F5F9093C602CD
:1046F000EE2059F00E942D069FEF1E140CF491E05D
:10470000899F802D11248093D002112359F00E949B
:104710002D0691E011160CF09FEF899F802D11243A
:104720008093D1028091D002882399F0E090D10249
:10473000EE2079F00E946F06882309F4B9C08093B7
:10474000D0028E2D0E946F06882309F4B4C0809396
:10475000D1028091CD02D81217C08091CE02882359
:1047600011F08F1111C02091CF02222311F00213FA
:104770000BC09091D102992311F0191305C030910B
:10478000D002332309F4B0C00E94060686E0FE0181
:104790003196ACECB2E001900D928A95E1F70E945F
:1047A000F90590914002891709F42FCE80934002B9
:1047B0009FB7F8944091DB025091DC026091DD02DA
:1047C0007091DE029FBF0E94540C1BCE863059F4BC
:1047D000F0E0EA58FC4FE4910E2F10E0EEE2EE2EEE
:1047E000EFE0FE2EE4CE893061F4E695F0E0ED587E
:1047F000FC4FE4910E2F10E072EAE72E7EE0F72ED8
:10480000D6CE8F3061F4E695F0E0E059FC4FE491AC
:104810000E2F10E06DE3E62E6EE0F62EC8CE853149
:1048200059F4F0E0E359FC4FE4910E2F10E05FEEF5
:10483000E52E5DE0F52EBBCE08E210E024E7E22E87
:104840002DE0F22E883109F4B2CE833249F4EBE642
:10485000F3E0059114914DEDE42E4EE0F42EA7CE39
:1048600004EF11E09DE3E92E9DE0F92E843209F476
:104870009ECE853281F48E2F63E00E949324E92F2F
:10488000F0E0E859FC4FE4910E2F10E038E5E32EFC
:104890003FE0F32E8CCE00ED17E08BE3E82E87E0AF
:1048A000F82E85CE4092CE0203CF4092CF0208CFA1
:1048B0004092D00246CF4092D1024BCF09BD19BDE4
:1048C00009B400FEFDCF8091D8008F7D8093D80081
:1048D0008091E00082608093E0008091E00081FDA3
:1048E000FCCF0E94001235CE822B892B09F44ECFCB
:1048F0004BCF2B30310508F0F8CE2BCF2B303105C4
:1049000008F0AACEDDCEDB018F939F930E94442650
:10491000BF91AF91A29F800D911DA39F900DB29F5B
:10492000900D11240895991B79E004C0991F9617E2
:1049300008F0961B881F7A95C9F78095089587FB24
:10494000082E062687FD819567FD61950E949324B8
:104950000EF4919507FC81950895AA1BBB1B51E1AC
:1049600007C0AA1FBB1FA617B70710F0A61BB70BDF
:10497000881F991F5A95A9F780959095BC01CD0184
:10498000089597FB072E16F4009407D077FD09D001
:104990000E94AD2407FC05D03EF4909581959F4F71
:1049A0000895709561957F4F0895EE0FFF1F059054
:1049B000F491E02D09940E947926332312F48A1B86
:1049C0009B0B0C94E5240E947926B7FF0895821B67
:1049D000930B08952F923F924F925F926F927F9226
:1049E0008F929F92AF92BF92CF92DF92EF92FF92FF
:1049F0000F931F93CF93DF93CDB7DEB7CA1BDB0BAB
:104A00000FB6F894DEBF0FBECDBF09942A8839884F
:104A100048885F846E847D848C849B84AA84B98456
:104A2000C884DF80EE80FD800C811B81AA81B98162
:104A3000CE0FD11D0FB6F894DEBF0FBECDBFED0176
:104A40000895002E083090F0982F872F762F652F2D
:104A5000542F432F322F22270850F4CF220F331F19
:104A6000441F551F661F771F881F991F0A95B2F7AD
:104A7000002D089597FD1094002E083098F00850EE
:104A8000232F342F452F562F672F782F892F912DC5
:104A9000F4CF159497958795779567955795479592
:104AA000379527950A95AAF71124002D08958F921E
:104AB0009F92AF92BF92CF92DF92EF92FF92CF93ED
:104AC000DF93EC01688179818A819B816115710591
:104AD0008105910521F464E279ED8BE597E02DE104
:104AE00033EF41E050E00E94252649015A019B0125
:104AF000AC01A7EAB1E40E9444266B017C01ACEE54
:104B0000B4EFA50194010E945226DC01CB018C0D6B
:104B10009D1DAE1DBF1DB7FF03C00197A109B04881
:104B200088839983AA83BB839F77DF91CF91FF907E
:104B3000EF90DF90CF90BF90AF909F908F900895AF
:104B40000E945725089580E091E00E94572508951E
:104B5000B0E0A0E08093000190930101A0930201D6
:104B6000B09303010895FC014150504030F0019092
:104B70000616D1F73197CF01089588279927089510
:104B8000FB01DC0104C08D910190801921F441509A
:104B90005040C8F7881B990B0895F999FECF92BD34
:104BA00081BDF89A992780B50895A6E1B0E044E068
:104BB00050E00C941726A8E1B0E042E050E00C94DD
:104BC0001726DC01A40FB51F4150504048F0CB011F
:104BD000840F951F2E910E94F22541505040D0F72E
:104BE0000895262FF999FECF92BD81BDF89A0197BD
:104BF00000B4021639F01FBA20BD0FB6F894FA9A25
:104C0000F99A0FBE08950396272F0E94F2250E945D
:104C1000F125252F0E94F225242F0C94F2250196D0
:104C2000272F0E94F2250C94F125DC01CB01FC0119
:104C3000F999FECF06C0F2BDE1BDF89A319600B4F5
:104C40000D9241505040B8F70895052E97FB1EF481
:104C500000940E943C2657FD07D00E94572607FC6F
:104C600003D04EF40C943C265095409530952195F8
:104C70003F4F4F4F5F4F0895909580957095619588
:104C80007F4F8F4F9F4F08950E947926A59F900DCB
:104C9000B49F900DA49F800D911D11240895B7FF1E
:104CA0000C9444260E944426821B930B0895A1E293
:104CB0001A2EAA1BBB1BFD010DC0AA1FBB1FEE1F96
:104CC000FF1FA217B307E407F50720F0A21BB30BE1
:104CD000E40BF50B661F771F881F991F1A9469F75D
:104CE00060957095809590959B01AC01BD01CF01B9
:104CF0000895A29FB001B39FC001A39F700D811DB5
:104D00001124911DB29F700D811D1124911D0895D4
:104D1000F894FFCF10133813D0143813D0146B133A
:104D20008C13D014891496143E17421733173A1770
:104D300046174A174E17A4171918AC1776177A1783
:104D4000B0177E17B417C0178A1712188E17C4171A
:104D50009217C817F0179617CC17F7179C17D2178A
:104D6000DA178217B8178617BC17A017D617E617D9
:104D7000001810187017A8172018231923195C1988
:104D80005C19071A231A84198419281AB01ABF1A31
:104D9000BF1A33185918601865186A186F187418F4
:104DA00079187E18831888188D18901895189818F7
:0C4DB0009B189E18A118A418A718AA1898
:104DBC00010000003205D00CC90CC20CBB0C01194F
:104DCC001A1B1C1D1E1F202122010201018182833E
:104DDC00E200E900EA00B500B600B700CD0083019F
:104DEC00CC008A01920194012102230224022502A3
:104DFC00260227022A02B300B4006F0070009F0144
:104E0C00CB019F02A0023332313094F6F5F4F1C697
:104E1C009091929395969734350001020202020606
:104E2C0006060909090909090F0F0F0F0F0F1515B0
:104E3C0015181919191919191919191923242525AE
:044E4C0025252525CE
:00000001FF
