:100000000C947F030C94B7030C94B7030C94B703C0
:100010000C94B7030C94B7030C94B7030C94B70378
:100020000C94B7030C94B7030C94581F0C94141F32
:100030000C9455200C94B7030C94B7030C94B7039D
:100040000C94B7030C94B7030C94B7030C94B70348
:100050000C94B7030C9431200C94B7030C94B703A1
:100060000C94B7030C94B7030C94B7030C94B70328
:100070000C94B7030C94B7030C94B7030C94B70318
:100080000C94B7030C94B7030C94B7030C94B70308
:100090000C94B7030C94B7030C94B7030C94B703F8
:1000A0000C94B7030C94B7030C94B703167C1E0092
:1000B0001F0020002100220023002400250026002C
:1000C00027002D002E0031002B0014001A0008001C
:1000D000150017001C0018000C00120013002F0060
:1000E00030002A00215204001600070009000A000F
:1000F0000B000D000E000F0033003400280000003C
:10010000E1001D001B000600190005001100100091
:10011000360037003800E50024520000E000E3001C
:10012000E2000000000000002C00000000000000C1
:100130003900E600E400350035003A003B003C00A1
:100140003D003E003F0040004100420043004400AB
:10015000450000000100000000004D00000000000C
:1001600000004B0052002A000000010001000100C5
:100170000100000000004C00000000004A00500098
:1001800051004F00000000000100000001000000CD
:1001900000000000000000004E006252000000005D
:1001A00000000100010000000100235201000000D6
:1001B0000000000028000000000000000100010015
:1001C0000100000000520000D30000000000000009
:1001D00000000000D300000000000000000000004C
:1001E0000100D200CD00D900000000000000D900BD
:1001F000CD00D20000000100010001000100CF008D
:10020000CE00D000000000000000CF00CE00D000E3
:100210000000000001000000010000000000DA0002
:1002200000000000DA00625200000000000001003F
:1002300001000000010001000100000000000000BA
:10024000D1000000000000000100010001000000DA
:10025000010000000000000000000000000000009D
:10026000000000000000000000000000010000008D
:1002700000000000000000000000A90000000000D5
:100280004600010001000100010000000000000024
:10029000000000000000AC00AE00AB000000000059
:1002A000010000000100000000000000000000004C
:1002B000AA00A800000000000000010001000000EA
:1002C000010001000100000000000000000000002B
:1002D000000000000100010001000000007C00009F
:1002E000000000000000000000000000000000000E
:1002F00000000000000000000000000000000000FE
:1003000000000000000000000000000000000000ED
:1003100000000000000000000000000000000000DD
:1003200000000000000000000000000000000000CD
:1003300020782278217824782378267825782878E0
:1003400027782A78297800000100000000000000CA
:10035000000000000000000000000000000000009D
:1003600000000000000000001E0F0500047F3F1F7A
:10037000643214643214783C1E1E140A0500010114
:100380000101010101010102020202020202020254
:100390000303030303030303040404040404040524
:1003A00005050505060606060607070707070808E8
:1003B0000808090909090A0A0A0B0B0B0C0C0C0D99
:1003C0000D0D0E0E0E0F0F0F101011111112121332
:1003D000131414151516161717181819191A1A1BAD
:1003E0001B1C1D1D1E1E1F2020212222232424250C
:1003F0002626272829292A2B2C2D2D2E2F30313245
:1004000032333435363738393A3B3C3D3E3F404154
:1004100042434445464748494A4C4D4E4F5051533C
:1004200054555658595A5B5D5E5F616264656668F3
:10043000696B6C6D6F7072737577787A7B7D7E8077
:1004400082838587888A8C8E8F91939596989A9CC3
:100450009EA0A2A3A5A7A9ABADAFB1B3B5B7BABCD7
:10046000BEC0C2C4C6C9CBCDCFD1D4D6D8DBDDDFA8
:10047000E2E4E7E9EBEEF0F3F5F8FAFDFFFFAA7F1F
:1004800055402223252628292A2C2D2F303233357A
:1004900036383A3B3D3E4042434547494A4C4E5030
:1004A00051535557595A5C5E6062646668696B6D5A
:1004B0006F71737577797B7D7F81838587898A8C5E
:1004C0008E90929496989A9C9E9FA1A3A5A7A8AA65
:1004D000ACAEAFB1B3B4B6B8B9BBBCBEBFC1C2C39A
:1004E000C5C6C7C9CACBCCCDCED0D1D2D2D3D4D534
:1004F000D6D7D7D8D9D9DADADBDBDBDCDCDCDCDC5D
:10050000DDDDDDDDDCDCDCDCDCDBDBDBDADAD9D934
:10051000D8D7D7D6D5D4D3D2D2D1D0CECDCCCBCAC2
:10052000C9C7C6C5C3C2C1BFBEBCBBB9B8B6B4B3E8
:10053000B1AFAEACAAA8A7A5A3A19F9E9C9A98967E
:100540009492908E8C8A89878583817F7D7B797751
:100550007573716F6D6B6968666462605E5C5A5931
:1005600057555351504E4C4A4947454342403E3DF2
:100570003B3A3836353332302F2D2C2A2928262580
:10058000232205010902A10185020901A100050933
:100590001901290815002501950875018102050139
:1005A000093009311581257F9502750881060938C2
:1005B0001581257F950175088106050C0A380215FD
:1005C00081257F950175088106C0C005010980A1BC
:1005D00001850319012AB700150126B70095017599
:1005E000108100C0050C0901A101850419012AA090
:1005F00002150126A002950175108100C0050109B0
:1006000006A1018506050719E029E71500250195D2
:1006100008750181020507190029EF1500250195CC
:10062000F0750181020508190129059505750191EB
:1006300002950175039101C005010906A101050795
:1006400019E029E71500250195087501810295013A
:10065000750881010507190029FF150026FF00957F
:100660000675088100050819012905150025019561
:100670000575019102950175039101C009023B00C6
:10068000020100A0FA090400000103010100092190
:10069000110100012244000705810308000109043B
:1006A0000100010300000009211101000122B60030
:1006B00007058203200001120100020000000875F6
:1006C0006F746801000102000112033100750070AF
:1006D000003600300068007400650000001A033125
:1006E00000750070006B006500790062006F0061AA
:1006F0000072006400730000000403090400112468
:100700001FBECFEFDAE0DEBFCDBF04B603FE18C0D8
:100710008091390390913A03A0913B03B0913C033F
:100720008730904BA740B04B59F410923903109288
:100730003A0310923B0310923C03E0E0F8E3099582
:1007400023E0A2E9B1E001C01D92A933B207E1F7AD
:1007500011E0A0E0B1E0EEE4FDE402C005900D92EE
:10076000A239B107D9F70E947C200C9451260C9431
:100770000000482F209135039091FC0257E0291387
:1007800002C080E0089530E0529FF001539FF00DC9
:100790001124E350FD4F8181681306C08081481306
:1007A00003C085818111EECF2F5F3F4F2770E7CFC8
:1007B000E8EDF0E080818E7F80831092E20010925D
:1007C000DA001092E100A0EEB0E08C9181608C9391
:1007D00080818F77808319BCA7EDB0E08C918E7FEC
:1007E0008C9380818F7E80831092CD02089520911A
:1007F000E4003091E50095E6A9012091EC00822FFC
:10080000817020FF06C08091E80080FF06C080E074
:1008100008952091E80022FD1AC08091F2028823F9
:1008200089F0853089F08091EB0085FD0FC0209123
:10083000E4003091E50042175307F9F29150E1F6D8
:1008400084E0089582E0089583E0089581E00895AA
:100850008091F40287FF13C08091E80082FF06C0F8
:100860008091E8008B778093E80004C08091F202C9
:100870008111F2CF08958091F2028823D9F38091FB
:10088000E80080FFF8CF8091E8008E77ECCF982FBA
:100890009093E900242F762F50E0891731F0709162
:1008A000EC002091ED005091F00021FD07C09F5F0A
:1008B000973071F78093E90081E008953091EB0063
:1008C0003E7F3093EB003091ED003D7F3093ED00A3
:1008D0003091EB0031603093EB007093EC0020938B
:1008E000ED005093F0002091EE0027FDE0CF80E076
:1008F0000895B0E0A0E0EFE7F4E00C94BD24C8ED6B
:10090000D0E088818F7E8883E7EDF0E08081816090
:10091000808384E082BF81E08093CD0288818E7FD6
:10092000888302EE10E0F80110821092DA0081EE66
:10093000C82ED12CF601108288818F778883888118
:100940008068888388818F7D888319BC1092F20229
:100950001092F3021092F1021092F00290EEE92E42
:10096000F12CF70180818B7F80838881816088836F
:1009700042E060E080E00E944704F60180818E7FC3
:100980008083F8018081816080838081886080839A
:10099000F70180818E7F8083888180618883CDB7D5
:1009A000DEB7E8E00C94D924FC018091FA02909122
:1009B000FB0286179707A0F06115710529F4909145
:1009C000E8009E779093E80090E06115710551F47E
:1009D000911108C08091E80082FF34C080E0089542
:1009E000BC01F2CF8091F2028823C1F18530C1F1C0
:1009F0008091E80083FD30C08091E80082FDEACF5D
:100A00008091E80080FFE1CF8091F3002091F20017
:100A1000382F6115710519F02830310558F091E033
:100A20002830310509F090E02091E8002E772093DE
:100A3000E800CBCF81918093F100615071092F5F65
:100A40003F4FE7CF8091F202882341F0853041F09B
:100A50008091E80083FFBECF81E0089582E0089591
:100A600083E008958091CF0208959C014FB7F894D8
:100A70008091C7029091C802A091C902B091CA02A8
:100A80004FBF821B930B08952FB7F8948091C70234
:100A90009091C802A091C902B091CA022FBF0895D7
:100AA000A3E0B0E0E6E5F5E00C94C3242091C40295
:100AB0003091C50228173907A1F09093C5028093A1
:100AC000C402E091C202F091C302309751F024E0D9
:100AD00029839B838A830680F781E02DCE010196CE
:100AE00009952396E2E00C94DF24A3E0B0E0EBE765
:100AF000F5E00C94C3242091C0023091C102281764
:100B00003907A1F09093C1028093C002E091C20224
:100B1000F091C302309751F023E029839B838A83AD
:100B20000680F781E02DCE01019609952396E2E03B
:100B30000C94DF24E091C202F091C302309729F0B7
:100B40000190F081E02D0995089580E008958F923D
:100B50009F92AF92BF92EF92FF920F931F93CF930A
:100B6000DF938430B0F5811135C090918000977F7C
:100B700090938000A0918600B0918700282F30E0EC
:100B80000E94422623E030E040E050E00E94202610
:100B900089019A0180918600909187006CE070E055
:100BA0000E94762460177107C8F0C80169E070E000
:100BB0000E94762470938D0060938C00DF91CF911A
:100BC0001F910F91FF90EF90BF90AF909F908F90EB
:100BD000089583E0909180009860CACF809186004C
:100BE00090918700E0908600F0908700E091860069
:100BF000F0918700C6E0D0E0BE010E947624060F87
:100C0000171F211D311D4801590185E0880C991CD1
:100C1000AA1CBB1C8A95D1F7C701BE010E9476248D
:100C20009F0150E040E0260F371F411D511DC501B7
:100C3000B4010E94202649015A01E0918600F091FA
:100C40008700CA01B9010E944C249B01AC01DF015D
:100C50000E940D269B01AC01C501B4010E944C24E9
:100C60002FE096958795779567952A95D1F700910E
:100C700086001091870030E020E00617170728074C
:100C8000390708F097CF609186007091870092CF66
:100C9000282F220F220F220F9091BF029770922BC4
:100CA0009093BF02987F21E009F420E09091BF0269
:100CB00020FB90F99093BF020E94A7050895FA01C6
:100CC000811101C0FB010995089508958091B70233
:100CD000982F9E7F29F4817082608093B7020895D7
:100CE0008635E8F381708465F8CFAF92BF92DF92CA
:100CF000EF92FF920F931F93CF93DF93082F162F3E
:100D0000E901E42FF0E0E358FC4F611110C0E491D9
:100D10005E2F4E2F4983E8835A83DF91CF911F9135
:100D20000F91FF90EF90DF90BF90AF900895E62E67
:100D3000F12C4491D42EE42FF0E026E0829FC001F4
:100D400011242FEF30E0B9010E947624802F90E02B
:100D5000880F991F55E5569FD001579FB00D11245C
:100D60008A1B9B0B982F990F890F5901AE18BF084A
:100D7000AE9ED001AF9EB00DBE9EB00D11245B2F74
:100D8000189F80011124012F11275901A01AB10ABF
:100D9000AE9E8001AF9E100DBE9E100D1124590114
:100DA000A81AB108AE9CC001AF9C900DBE9C900DDE
:100DB0001124892F9927281B390B2E9FC0012F9FA3
:100DC000900D3E9F900D1124E92F62307105A1F026
:100DD00050F46115710509F49DCF6130710581F002
:100DE000EB2F512F97CF6430710569F080F066309A
:100DF000710509F48FCFF4CFE42F4B2F592F8ACFF1
:100E0000E42F412F87CFEB2F542F492F83CF4B2F28
:100E10005D2DE12F7FCF0E9444059C019091380207
:100E200080913902982B21F03093350220933402BF
:100E300090913A0280913B02982B21F0309333023B
:100E400020933202E091C202F091C302309749F040
:100E500082E0809336020480F581E02D86E392E003
:100E6000099508958091310280FD16C081FD16C05C
:100E700082FD16C0809130028823A1F0883280F470
:100E800028E0829FC001112468E270E00E948A2459
:100E9000862F672B39F0089582E0089584E0089545
:100EA00088E0089581E008958091310280FD14C0AA
:100EB00081FD14C082FD16C080912F02882381F02D
:100EC0008E3180F420E5829FC00111246EE170E034
:100ED0000E948A24862F089584E1089588E2089567
:100EE00088E0089580E50895282F35EB2303C0019D
:100EF000112497FF04C080589109892F08958058C4
:100F00009F4FFBCF80E00895F894E82FE295EF70B3
:100F1000F0E031A1282F2F7081E090E001C0880F10
:100F20002A95EAF7982F9095932391A392A1892B64
:100F300082A3789408959091CB0292FF10C041E073
:100F4000282F2471243009F040E031E0282F287147
:100F5000283009F030E0431711F02CE0822793FF8E
:100F600010C041E0282F2471243109F040E031E025
:100F7000282F2871283109F030E0431711F02CE0B8
:100F800082273091CC0230FF10C051E0282F217110
:100F9000213009F050E041E0282F2871283009F075
:100FA00040E0541711F029E0822731FF10C041E0E2
:100FB000282F2171213109F040E031E0282F2871DC
:100FC000283109F030E0431711F029E0822794FD21
:100FD000877E089582389105B9F1B0F48133910587
:100FE00009F47DC048F48932910509F46DC08A3254
:100FF000910509F47BC008958533910509F45FC01C
:101000008933910509F10895833E9105D9F138F4AA
:10101000803E910529F1823E910579F10895863E41
:101020009105D9F1873E910509F43EC0843E9105B2
:1010300041F52091CC0221FF24C08091CB0284FD98
:1010400019C087EE90E008952091CB02237009F03B
:101050005AC02091CC0223FF14C089E290E0089589
:101060002091CB0220FD38C03091CC0230FF09C066
:1010700024FF43C090E080E008952091CB0222FD40
:10108000F7CF08952091CB0222FD3AC03091CC02D7
:1010900030FD39C024FFF5CFEDCF2091CB0223FFE7
:1010A000F0CF24FDE7CFCDCF2091CB0223FD2EC082
:1010B0003091CC0231FFEECF84EE90E00895209184
:1010C000CB0225FFDECFC9CF2091CB0225FD21C069
:1010D0002091CC0223FFD5CF89E390E0D2CF20919D
:1010E000CB0226FFCECF8AE290E008952091CB027A
:1010F00026FFC7CF81E390E0089583EE90E0089546
:1011000082EE90E0089580EE90E0089586EE90E003
:10111000089585E390E00895972F7530B8F46E3008
:10112000A8F48530B0F470E02EE0929F600D711D40
:101130001124FB0196E4899FE00DF11D1124EE0FAF
:10114000FF1FE455FF4F85919491089580E090E052
:10115000089581E0FCCF1F93CF93DF930E94EA07AD
:10116000EC01C11580E5D807F0F5C11580E4D8077A
:1011700008F09CC0C03ED10520F5CD3CD10508F05B
:1011800082C0C83AD10578F4C53AD10508F073C0D9
:10119000C130D10519F1209709F1C430D105F0F41F
:1011A000D0E0C0E01BC0C33CD105D0F7C85AD0E0A6
:1011B000CC0FDD1FC25EDE4F0990D881C02DD464F4
:1011C0000DC0C11580E2D80708F0D1C0C11581E07B
:1011D000D80708F05AC0C83ED10510F7CE01DF91FC
:1011E000CF911F910895C03682E5D80718F5C03415
:1011F00082E5D80708F06BC0C03282E5D80708F056
:101200005FC0C11582E5D80708F497C02C2F26953A
:10121000269580E2289F900111248C2F8370C1E0D5
:10122000D0E002C0CC0FDD1F8A95E2F7C22BD32B92
:10123000DD68D4CFC03A82E5D80760F4C03882E5D3
:10124000D80708F459C0CF71D0E0DC2FCC27C46F89
:10125000D06AC4CFC03C82E5D80708F462C0C03E63
:1012600082E5D80708F09CCFDC2FCC27CC27DF7194
:10127000C06FD06AB3CFC55AD0E0C55EDE4FC8811B
:10128000D0E0D064ABCFD065A9CF8D2F0E949B0753
:10129000182FCE0199270E94EA07C12FD0E0DC2F3A
:1012A000CC27CC27DF71C82BD92B98CFCE0199271B
:1012B0000E94EA07CC27DF70C82BD92BD06A8ECFCB
:1012C000CF71D0E0DC2FCC27C16FD06A87CF2C2F15
:1012D00026952695277080E2289F900111248C2F57
:1012E0008370C1E0D0E002C0CC0FDD1F8A95E2F729
:1012F000C22BD32BDC6872CF2C2F26952695277016
:1013000080E2289F900111248C2F8370C1E0D0E0EF
:1013100002C0CC0FDD1F8A95E2F7C22BD32BDA680F
:101320005DCF8C2F8F710E949B07C82FD0E0DC2FE0
:10133000CC27CC27DF71D06251CF8C2F8F710E94C8
:101340009B0755E0D695C7955A95E1F7CF70D0E049
:10135000DC2FCC27282F30E084FF05C044E0220F8B
:10136000331F4A95E1F7C22BD32BD06937CF8D2F8E
:101370008F710E949B07182FCE0199270E94EA07C0
:10138000C12FD0E0DC2FCC27CC27DF71C82BD92B85
:10139000D2CF8095909104029823909304020895EF
:1013A00090911A019923D1F09091CB0297FF16C02A
:1013B000E82FE695E695E695EE31E0F4F0E0EC56A0
:1013C000FE4F282F277081E090E001C0880F2A95FA
:1013D000EAF780959281892382830895E6E9F1E016
:1013E0009191891303C0DF0111971C9291E0EC39B0
:1013F000F907B1F7089590911A019923C1F09091DE
:10140000CB0297FF14C0E82FE695E695E695EE31FE
:10141000F8F4F0E0EC56FE4F877021E030E001C0B8
:10142000220F8A95EAF78281822B82830895A6E9AA
:10143000B1E0EFEF90E02D91821751F0EF3F19F4FA
:10144000211101C0E92F9F5F9630A9F7EF3F09F402
:1014500008950E2E000CFF0BEC56FE4FE6CF809148
:1014600035039091FC02981301C008958F5F877037
:10147000FACFB0E0A0E0EFE3FAE00C94BC247C01EA
:1014800000911602109117028091050290910602B8
:10149000082B192BCFE0D0E0CC24C394D12CBC2E48
:1014A000C6010C2E02C0880F991F0A94E2F7802310
:1014B0009123892B49F4219790F7B12C8B2DCDB72F
:1014C000DEB7E9E00C94D824B7018C2F0E948C0879
:1014D0000E94AB08019779F3F1CFCF93DF93EC0132
:1014E0000E94390ABE010E948C080E94AB08DF915D
:1014F000CF910895953078F58E3068F5E82FF0E0BB
:101500008EE0989FE00DF11D11249E2F977083E0CF
:10151000F695E7958A95E1F7EE0FFF1FEE0FFF1F97
:10152000EA54FE4F50E040E080E0219130E0092E87
:1015300002C0369527950A94E2F721703327042ECE
:1015400001C0220F0A94EAF7822B4F5F5F4F4430AD
:10155000510559F7089580E00895953098F58E303B
:1015600088F5E82FF0E08EE0989FE00DF11D112442
:101570008E2F877041E001C0440F8A95EAF783E01F
:10158000F695E7958A95E1F7EE0FFF1FEE0FFF1F27
:10159000EA54FE4F30E020E070E05191DF011197F6
:1015A000CB01022E02C0969587950A94E2F78170CE
:1015B00081958527842385278C932F5F3F4F243087
:1015C000310559F7089590931702809316020895F4
:1015D00021E030E002C0220F331F8A95E2F7209508
:1015E00030958091160290911702822393230E94D6
:1015F000E30A08959091E101809589238093E101A8
:10160000282F277069F4891759F09091CC0292FF26
:1016100007C08695869586950E94E80A1092E1019A
:10162000089521E030E002C0220F331F8A95E2F7CF
:101630008091160290911702822B932B0E94E30A4D
:10164000089590930602809305020895FC01248179
:101650002223C1F0808191810E946D0A92959F7032
:10166000963091F058F4925F9F70923058F4803F1A
:1016700019F030F4883E30F481E008959A5FF4CF99
:10168000843FD1F380E00895883EB0F3813FD1F7E5
:10169000F3CF662309F45DC08D3C41F40E945407EA
:1016A0008195809339020E940B0708958E3C19F4AE
:1016B0000E945407F6CF8F3C31F40E945407819565
:1016C00080933802F0CF803D19F40E945407F8CF80
:1016D000893D29F40E94320780933A02E4CF8A3D83
:1016E00021F40E9432078195F7CF8B3D31F40E949F
:1016F0003207819580933B02D6CF8C3D19F40E942E
:101700003207F8CF9FE2980F983070F4815D990B03
:1017100021E030E001C0220F8A95EAF7809137027C
:10172000822B80933702BFCF8D3D31F480913102FF
:10173000816080933102B7CF8E3D21F480913102D8
:101740008260F7CF8F3D09F0AECF80913102846087
:10175000F0CF409138028D3C59F48091390287FFD7
:101760000DC01092390241110BC010922F0208C017
:101770008E3C81F48091390218169CF3442381F049
:1017800080913A0290913B02892B09F08CCF109204
:10179000300289CF8F3C49F447FFF0CF10923802D6
:1017A000809139028111ECCFE0CF803D19F41416FD
:1017B000ACF3E4CF90913A02893D29F41916F4F67E
:1017C00010923A02DBCF8A3D19F497FFD7CFF8CFBA
:1017D00090913B028B3D29F497FFD0CF10923B02B2
:1017E000CDCF8C3D19F41916CCF3C8CF9FE2980FDA
:1017F000983090F4815D990B21E030E0B90102C08E
:10180000660F771F8A95E2F7CB018095909137029A
:10181000892380933702B2CF8D3D31F4809131021C
:101820008E7F80933102AACF8E3D21F480913102C8
:101830008D7FF7CF8F3D09F0A1CF809131028B7F53
:10184000F0CF81FD03C02E9A81E008952E98FCCF41
:10185000A6E0B0E0EEE2FCE00C94C22449835A8397
:1018600049815A819923A1F0222391F0CA010E9453
:10187000390A182F682F89819A810E94AD0A6981DF
:101880007A81812F0E948C082696E3E00C94DE2456
:10189000CA010E947A0A182FF2CF0F931F93CF9399
:1018A000DF938B01EA019091F202943061F580930D
:1018B000E9008FEF9091E800815095FD06C095ED0D
:1018C0009A95F1F700008111F5CF8091E80085FF2E
:1018D0001AC00E94F703811111C08091E80085FDB4
:1018E00006C08091E8008E778093E800F2CFF8017F
:1018F00081918F018093F100219779F78091E80021
:101900008E778093E800DF91CF911F910F9108951A
:1019100043E050E0BC0182E00E944D0C089546E097
:1019200050E0BC0182E00E944D0C0895CF93DF93FC
:10193000EC0180911A01811111C048E050E0BE0114
:1019400081E00E944D0C80E2FE01A0EDB2E001902A
:101950000D928A95E1F7DF91CF9108958091CB02A6
:1019600087FF05C040E282E050E0BE01EACF48E0D8
:1019700081E0FACF81E08093E00080E28093D8009C
:101980001092C9008FE19EE40197F1F700C00000BA
:1019900087E090EBDC018093390390933A03A093A6
:1019A0003B03B0933C0388E19CE00FB6F894A89504
:1019B000809360000FBE90936000FFCF8091B702CC
:1019C00080FD0AC0E7E4F2E01182108212823396B1
:1019D00052E0E137F507C1F7809A31B33E7F21B37A
:1019E00021604FB7F89487E492E0FC015191CF0158
:1019F00068E021BB000000C057FF31BB550F00005D
:101A000000C000C000C031BB00C06A9591F7F2E091
:101A100081379F0751F74FBF8FE594E00197F1F7AA
:101A200000C000000895EF92FF920F931F93CF9391
:101A3000DF938C01C7E4D2E0F12CE12CF801948112
:101A40006091B9028091B802F7E0EF16F104ECF46E
:101A50009923E9F09E014091BA020E9475062FEF8A
:101A6000E21AF20A23968EE0E816F10439F70E9492
:101A7000DE0CF801848190E00196817099278483BF
:101A8000CDB7DEB7E6E00C94DB24992319F39E0171
:101A900040E0E3CFB0E0A0E0E0E5FDE00C94B92445
:101AA000EC014C81042F10E09801D8010E944226DD
:101AB0009B01AC010E940D264B015C01E0E2F0E0CD
:101AC000E01BF10BA5E5B0E0AC019B010E940D26E7
:101AD0006B017C019F01DF010E94A4249B01AC01EA
:101AE0000E9418269B01AC01280D391D4A1D5B1D63
:101AF000C701B6010E942026F22E822F90E039E223
:101B00003F1598F143E0249F9001112435952795C6
:101B1000122F109597E4C92E92E0D92E00E085E5AA
:101B2000E82EEF188E2D01FD8F2D9601412F60912B
:101B3000B9020E9475060F5F53E0C50ED11C0E302E
:101B400089F70E94DE0C9C8181E0992319F0903284
:101B500019F48FEF8093190180911901890F8C83FB
:101B6000CDB7DEB7ECE00C94D52425E530E0A90133
:101B7000481B590BCA019A01220F331F280F391F26
:101B800037FFC4CF2F5F3F4FC1CF0F931F93CF932A
:101B9000DF93C7E4D2E0FE011182108212823396F5
:101BA00082E0E137F807C1F710E000E080914502DC
:101BB000082E000C990B081719078CF18091180159
:101BC000082E000C990B801791074CF19E01409153
:101BD000BA026091B9028091B8020E9475060F5F47
:101BE0001F4F23960E30110509F70E94DE0C8091DD
:101BF000170190914502980F90934502209118018A
:101C0000280F20931801121614F49D301CF08195B2
:101C100080931701DF91CF911F910F910895198241
:101C200018821A82DCCFB0E0A0E0E9E1FEE00C947B
:101C3000BC24FC018281DD24DA9480FD02C0DD2415
:101C4000D39407E412E0D0E0C0E02EE0B22EF80119
:101C500011821082128294E0E92EF12CC12C809125
:101C600044028C0D8F30C4F16B2D0E946824892FA3
:101C7000082E000C990B8C179D0791F48091BA02E5
:101C80008E9DA0018F9D500D11245595479555951A
:101C9000479598016091B9028091B8020E9475063B
:101CA000CD0CF1E0EF1AF108D1F621960D5F1F4F30
:101CB000CE30D10561F60E94DE0C8091440291E0A5
:101CC000D91210C081110CC08DE080934402CDB7B1
:101CD000DEB7E9E00C94D82487FFCACF825FC8CF73
:101CE0008150F3CF90E00196BE010E948A24EDCF8F
:101CF000EF92FF921F93CF93DF93EC0187E4E82EDE
:101D000082E0F82E10E08C8197014091BA02609138
:101D1000B902810F0E9475061E5E83E0E80EF11C79
:101D20001C3F89F70E94DE0C9A818C8190FF08C0CD
:101D30008F5F8C83DF91CF911F91FF90EF9008957B
:101D40008150F7CF9091B70290FF0CC0E7E4F2E02A
:101D5000818360834283339692E0E137F907C1F7CC
:101D60000E94DE0C0895A3E0B0E0E9EBFEE00C94E5
:101D7000C1248C018091460281110AC09E012F5F0F
:101D80003F4F4FEF6FEF0E9475068A8180934602A6
:101D9000F8016481613069F08091460240E0662379
:101DA00061F040E0623011F44091460280E060E072
:101DB00004C06091460240E080E00E94A20EF8015B
:101DC000848190E0019663E070E00E948A2484831D
:101DD0002396E4E00C94DD24A3E0B0E0E2EFFEE023
:101DE0000C94C3249091B70290FF0AC09E012F5F0C
:101DF0003F4F0E9475064B8169818A810E94A20E25
:101E00002396E2E00C94DF24CF93DF93EC01E7EB21
:101E1000F2E0438162818C810E94EC0E8C818F5FA5
:101E20008C83DF91CF910895CF93DF93EC01EC8108
:101E3000F0E0EE57FB4F4491E7EBF2E062818181E5
:101E40000E94EC0E8C818F5F8C83DF91CF9108957F
:101E5000682F86E090E00E94BA250895B0E0A0E0E7
:101E6000E4E3FFE00C94B524FC016280448081E04F
:101E70008483E2E8F4E07490E1E0F5E0E49100911D
:101E8000BA020695015810E0000F111F012F11270B
:101E9000C1E7D2E027E4C22E22E0D22E37EB832E18
:101EA00032E0932EAA24AA94B12C55245A94E7190F
:101EB000EE2EF12C82E0861530F08091B8028883F6
:101EC0008091B9028983411016C01B821A82960143
:101ED0004A81698188810E947506259683E0C80E33
:101EE000D11C8C169D0631F70E94DE0CCDB7DEB7F3
:101EF000E0E10C94D1248B818823E9F081508B831D
:101F0000859DC00111246C8170E00E947624FB0144
:101F1000FF27EE57FB4F8491E82FE719E59DC0019D
:101F20001124B7010E9476248091BA02689FB00103
:101F300011247A83CCCF0E946C25B5010E948A249B
:101F40008017910724F682E0861588F40E946C259C
:101F5000B5010E948A2488830E946C252091B902D1
:101F60002695622F70E00E948A24280F29831A8206
:101F70008091BA02893C20F088EC8C838B83A7CFB8
:101F80008431D8F784E1F9CFB0E0A0E0EAECFFE0DB
:101F90000C94B92449015A016B017C010E94660628
:101FA0008401A4016A2D7B2D88E090E00E94CC255D
:101FB00094014A2D5B2DB601C70100E20E94052560
:101FC000622F84E290E00E94BA25CDB7DEB7ECE044
:101FD0000C94D524A3E0B0E0E0EFFFE00C94B6242D
:101FE000F82E762EE42E622E9091B70290FF2EC02E
:101FF000E92FE695AE2FB0E0A959BE4F8C918093A2
:1020000042029E7F923031F59E012F5F3F4F8F2D10
:102010000E9475064B8169818A810E94A20EF0920E
:10202000B8027092B902E092BA02662079F020916B
:10203000B7026091BB027091BC023F2D472D5E2D0F
:102040008091BD029091BE020E94C40F2396EFE0E2
:102050000C94D224823019F4E090BA02E0CF86309A
:1020600019F4F090B802DBCF8930D9F38931B9F691
:10207000E9518E2F8170582EE695F0E0E358FB4F22
:10208000E4910E2F10E087E4C82E82E0D82EB12C08
:10209000A12C9EE0892E912CC501B4010E947624CA
:1020A0008F2D511013C0860F96014E2D672D0E9463
:1020B0007506A00EB11E83E0C80ED11C81E7C816BC
:1020C00082E0D80649F70E94DE0CA9CF861BECCF30
:1020D000E7EBF2E0438128E0421B08F440E021E016
:1020E000628181810E94EA0F0895E7EBF2E043816B
:1020F00028E0420F08F44FEF21E0628181810E94C5
:10210000EA0F0895E7EBF2E0628128E0621B08F431
:1021100060E021E0438181810E94EA0F0895E7EBAE
:10212000F2E0628128E0620F08F46FEF21E0438162
:1021300081810E94EA0F0895E7EBF2E0818121E0BE
:102140004381628188500E94EA0F0895E7EBF2E034
:10215000818121E043816281885F0E94EA0F0895B6
:102160008091BB02882319F081508093BB0220919B
:10217000B7023091B8024091B9025091BA02609111
:10218000BB027091BC028091BD029091BE020E9480
:10219000C40F08958091BB02833018F48F5F809341
:1021A000BB022091B7023091B8024091B902509120
:1021B000BA026091BB027091BC028091BD02909105
:1021C000BE020E94C40F08959091B70290FF34C0E0
:1021D0009170811132C092609093B702662391F0A2
:1021E0002091B7023091B8024091B9025091BA02E1
:1021F0006091BB027091BC028091BD029091BE02C1
:102200000E94C40F6091B702669570E04BE050E009
:102210008CE091E00E947C25892BB1F01092430262
:1022200081E080933F0220E04091BA026091B902C0
:102230008091B8020E94EA0F08958B3210F09465E5
:10224000CBCF880F982BC8CF81E0809343020E94A8
:10225000440590933D0280933C02E2CF8091B70207
:102260008695815009F48AE261E00E94E4100895A5
:102270008091B70286958F5F8B3208F081E061E034
:102280000E94E41008959091B70290FF08C09695BF
:10229000981728F0961718F40E943811089561E0F5
:1022A0000E94E4100895E7EBF2E083E0808311825E
:1022B0008FEF828383831482758123E030E04FEFB8
:1022C0005FEF60E0868197810E94C40F089590912E
:1022D000CC0292FB222720F9281779F080FB92F993
:1022E0009093CC026091CB027091CC0284E090E09C
:1022F0000E94D82582E00E94FA0A08958091040283
:1023000090910302892B809394019091020299236A
:10231000A1F0892B8093940180911A018823E1F127
:102320008091CB0287FF38C08EE1E6E9F1E090E0D2
:102330008150A0F591111092020240E250E062EE4D
:1023400071E084E991E00E948925892B21F180E2E6
:10235000E4E9F1E0A2EEB1E001900D928A95E1F797
:10236000E091C202F091C3023097A9F080911A0166
:10237000882359F08091CB0287FF07C08091940198
:102380008093950186E0809394010280F381E02D93
:1023900084E991E00995089586E0C7CF2191222331
:1023A00039F29F5FC5CF1092040280911A01E6E9CD
:1023B000F1E0882329F18091CB0287FF21C08EE1D3
:1023C000DF011D928A95E9F790E080E00E94750593
:1023D00090E080E00E945005109203020E947E115E
:1023E00086E0E6E3F2E0DF011D928A95E9F71092BC
:1023F0002F0210923002109231020E940B070895B2
:1024000086E0DECFAAE2B0E0E8E0F2E10C94C2247C
:1024100084EF92E02091F100FC012193CF01F2E0E2
:102420008C3F9F07B9F78091F502833009F470C0A3
:10243000B8F4813009F447C0823009F4B1C080910A
:10244000E80083FF7EC28091F4029091F5029A30F9
:1024500008F077C2E92FF0E0ED5AF94D0C949E2474
:102460008A3009F48CC08B3009F46FC0893039F799
:102470008091F402813219F78091F8029091F9026B
:102480000297E8F68091E800877F8093E8008091CA
:10249000E80082FF38C09091F3008091F20002972B
:1024A00031F48091F100813011F0863021F4809177
:1024B000F1008093CF028091E8008B778093E80051
:1024C0000E942804BCCF8091F402813A09F0B7CF72
:1024D0008091E800877F8093E8008091F8029091D6
:1024E000F902892B61F460E280ED92E070E00E94D5
:1024F000D4048091E8008B778093E800A0CF60E05F
:1025000090E080E0F3CF8091F2028111C0CF97CFAD
:102510008091F402813A09F092CF8091F802909173
:10252000F902892B09F08BCF8091E800877F809397
:10253000E8008091E80080FFFCCF80911A01809331
:10254000F1008091E8008E77B9CF8091F40281325A
:1025500009F075CF8091F8029091F902892B09F06A
:102560006ECF8091E800877F8093E8000E94280466
:102570008091F60280931A010E94D31160CF80915E
:10258000F402813209F05BCF8091E800877F80936D
:10259000E8000E9428048091F7028093CE024FCF7A
:1025A0008091F402813A09F04ACF8091E800877F58
:1025B0008093E8008091E80080FFFCCF8091CE02FC
:1025C000BECF803899F0823809F0BBC18091F80203
:1025D0008F70873008F0B5C18093E9008091EB00DF
:1025E00085FB882780F91092E90006C08091F002EF
:1025F0009091F102911182609091E800977F909301
:10260000E8008093F1001092F1008091E8008E774D
:1026100094C1882309F482C1823009F092C180916B
:10262000F602811185C18091F8028F702FEF280F7B
:10263000263008F086C18093E9002091EB0020FF4E
:1026400077C1933031F48091EB0080628093EB008E
:102650006FC19091EB0090619093EB0021E030E02E
:1026600001C0220F8A95EAF72093EA001092EA004F
:102670008091EB008860EACF811163C11091F6026E
:102680001F778091E3008078812B8093E300809115
:10269000E800877F8093E8000E9428048091E8008A
:1026A00080FFFCCF8091E30080688093E30082E0AC
:1026B000111183E08093F20244C18058823008F007
:1026C00040C18091F6029091F7028C3D23E0920781
:1026D000A1F583E08A838AE289834FB7F894DE010B
:1026E000139620E03EE051E2E32FF0E050935700D4
:1026F000E49120FF03C0E295EF703F5FEF708E2FF3
:1027000090E0EA30C0F0C7968D939D932F5F2431FF
:1027100059F74FBF8091E800877F8093E8006AE215
:1027200070E0CE0101960E94D4048091E8008B777E
:102730008093E80006C1C096E7CF4091F80250911F
:10274000F902292F33272330310509F444C078F5E5
:102750002130310509F46FC08BE390E0ECE7F6E03F
:102760002230310509F0EDC02091E800277F209349
:10277000E8002091FA023091FB028217930708F4D7
:102780009C0140E02115310509F064C0411162C08F
:102790008091E80082FDC9CF8091F202882329F25E
:1027A000853019F28091E80083FFF2CFBECF21324D
:1027B0003105A9F12232310509F0C3C04115510597
:1027C00009F443C04130510509F0BBC086EB90E0ED
:1027D000E2E8F5E0C9CF992781309105C1F0009773
:1027E00059F0029709F0ADC0E9ECF6E0E4918E2FC4
:1027F00090E0E9ECF6E007C0E9EFF6E0E4918E2F17
:1028000090E0E9EFF6E0009709F49BC0ADCFEDED65
:10281000F6E0E4918E2F90E0EDEDF6E0F4CF411577
:10282000510571F04130510509F08BC089E090E00D
:10283000E7EAF6E099CF82E190E0E7EBF6E094CFAB
:1028400089E090E0EEE8F6E08FCF84E490E0E8E302
:10285000F6E08ACF8091F202882309F466CF8530B2
:1028600009F463CF8091E80083FD5FCF8091E80099
:1028700082FD8ECF8091E80080FF84CF9091F3009D
:102880008091F2002115310519F08830910550F042
:1028900041E0089709F040E08091E8008E7780934E
:1028A000E80070CF44914093F100319621503109F6
:1028B0000196E8CF803809F044C08091E800877F16
:1028C0008093E8008091F3028093F1009ECE811105
:1028D00038C01091F6021230A0F58091E800877F91
:1028E0008093E8001093F3020E942804112311F052
:1028F00084E005C08091E30087FDFACF81E08093FA
:10290000F20242E061EC81E00E94470442E261ECA5
:1029100082E00E9447048091F20213C08091F60287
:10292000813079F481E0933009F080E08093F10206
:102930001092E9008091E800877F8093E8000E9470
:1029400028048091E80083FF0AC08091E800877F17
:102950008093E8008091EB0080628093EB00AA9660
:10296000E3E00C94DE240E94D3112FEF84E39CE07B
:10297000215080409040E1F700C0000088E19CE0D9
:102980000FB6F894A895809360000FBE90936000F6
:10299000FFCF882321F00E94C9090E947E1108956B
:1029A000882339F090910402982B909304020E949E
:1029B0007E110895882309F456C0823879F40E9464
:1029C0009A0581FF50C089E30E94FB090E947E1195
:1029D00089E30E94D0090E947E110895833859F43A
:1029E0000E949A0580FF3FC083E50E94FB090E9478
:1029F0007E1183E5EECF843859F40E949A0582FF58
:102A000032C087E40E94FB090E947E1187E4E1CF77
:102A10009CEF980F913AE8F290E2980F983050F4BA
:102A2000877091E001C0990F8A95EAF7892F0E947B
:102A3000C909D1CF9BE5980F933028F490E080E04E
:102A40000E947505089598E5980F9B3128F490E051
:102A500080E00E945005089593E3980F933118F495
:102A600060E00E94490B0895CF93C82F8823C9F0D6
:102A70008238C9F40E949A0581FD13C089E30E943F
:102A8000FB090E947E112FEF87EE93E021508040DA
:102A90009040E1F700C0000089E30E94D0090E9445
:102AA0007E11CF9108958338A1F40E949A0580FD8C
:102AB000F8CF83E50E94FB090E947E112FEF81EE83
:102AC00094E0215080409040E1F700C0000083E591
:102AD000E4CF8438A1F40E949A0582FDE2CF87E416
:102AE0000E94FB090E947E112FEF81EE94E021509D
:102AF00080409040E1F700C0000087E4CECF8CEF2B
:102B00008C0F813A88F580911A01882301F1809118
:102B1000CB0287FF1CC0EC2FE695E695E695F0E02A
:102B2000EC56FE4F828190E04C2F477021E030E060
:102B300002C0220F331F4A95E2F782239323892B89
:102B400079F08C2F0E94D0090E947E1109C0E6E91D
:102B5000F1E08191C817A9F321E0EC39F207C9F738
:102B60008C2F0E94FB099BCF80E28C0F883068F489
:102B7000C77021E030E001C0220FCA95EAF78091CA
:102B80000402822B809304028ACFEBE5EC0FE33042
:102B900040F4F0E0E55EFE4F808190E00E94750514
:102BA00080CFE8E5EC0FEB3150F4F0E0EE0FFF1FC3
:102BB000E25EFE4F808191810E94500572CF83E3D7
:102BC0008C0F833108F06DCF61E08C2F0E94490B90
:102BD00068CF0F931F93CF93DF93C62FD42F022F6D
:102BE000FC0185818823A9F0609338030E94440585
:102BF0009093370380933603C77081E001C0880F3C
:102C0000CA95EAF70E94D014DF91CF911F910F91DE
:102C1000089580913803681335C0809136039091F0
:102C200037030E943505883C910560F510E21D0FC1
:102C3000CD17B9F080E28C0F883040F4C77081E086
:102C400001C0880FCA95EAF70E94C914183048F4E9
:102C500081E09D2F977001C0880F9A95EAF70E9436
:102C6000D014802F0E943415802F0E94DA1418305F
:102C700058F6D77081E001C0880FDA95EAF70E9414
:102C8000C914C2CFC77081E001C0880FCA95EAF7A6
:102C9000F6CFB0E0A0E0EFE4F6E10C94BB248C01A9
:102CA000FC018481882309F45DC021E040815181C9
:102CB0006281738195810E94280CEC01F801858165
:102CC000882309F4D7C4C230F8E7DF0709F481C0CC
:102CD000A0F4C11538E7D30779F1C13088E7D807E8
:102CE00009F445C0FE01E851FC47E730F10508F062
:102CF000A9C0E35AF94D0C949E24C43098E7D90733
:102D000009F453C0B0F1C530F8E7DF0759F79091E7
:102D1000BF02892F8695869586958F5F8F719770F4
:102D2000843008F06EC0880F880F880F892B80933D
:102D3000BF028091BF0225C083E00E9448068091B7
:102D4000BF020E94280F8091E101877059F0F801BD
:102D50008581882339F08091CC0282FF03C082E014
:102D60000E94FA0ACDB7DEB7EAE00C94D72480E0DF
:102D7000E4CF8091BF02982F987F79F0885080939C
:102D8000BF02887F91E009F490E08091BF0290FB40
:102D900080F98093BF020E94280F8091BF02869520
:102DA000869586950E94A705CECF8091BF02982F69
:102DB000969596959695933040F49F5F990F990F4D
:102DC000990F8770892B8093BF028091BF02816029
:102DD000E0CF8091BF0280FF07C08E7F8093BF024B
:102DE0000E94280F80E0DECF80FDADCF8160809310
:102DF000BF02813019F489E08093BF028091BF0245
:102E0000CACF9093BF0295CF26E241EE61EEC80192
:102E10000E94E91598CF27E245EE65EEF8CF26E24D
:102E200041EE60EEF4CF27E245EE64EEF0CF26E20D
:102E300041EE62EEECCF27E245EE66EEE8CF28E207
:102E400041E0EBCF10923803CE019057839708F002
:102E5000DDC384E090E00E94A4259093CC0280938F
:102E6000CB02FE01E150F047E232F10520F4EC59CB
:102E7000F94D0C949E248091CB0281608093CB020B
:102E800095C08091CC0288608093CC028FC08091E5
:102E9000CB028260F3CF8091CB028460EFCF809130
:102EA000CB028860EBCF8091CC028160EDCF809126
:102EB000CC028260E9CF8091CB028061DFCF80912C
:102EC000CB028062DBCF8091CB028064D7CF0E949F
:102ED000D3118091CB028068D1CF8091CB028C60DE
:102EE000CDCF8091CC028360CFCF8091CB028E7FFB
:102EF000C5CF8091CC02877FC7CF8091CB028D7FD9
:102F0000BDCF8091CB028B7FB9CF8091CB02877FE1
:102F1000B5CF8091CC028E7FB7CF8091CC028D7FD0
:102F2000B3CF8091CB028F7EA9CF8091CB028F7DD2
:102F3000A5CF8091CB028F7BA1CF0E94D31180912E
:102F4000CB028F779BCF8091CB02837F97CF8091ED
:102F5000CC028C7F99CF8091CB0282FB992790F98C
:102F600021E0922790FB82F990FB83F987CF809133
:102F7000CC02982F909591708E7F892B90FB81F9D0
:102F800083CF9091CB02892F8F7B96FF806476CF81
:102F90000E94D3119091CB02892F97FB87F980581B
:102FA0006DCF61E08EE090E00E94BA256091CB0287
:102FB0007091CC0284E090E00E94D8250E94D31149
:102FC000C2CE60E0EFCF9091CB02892F8F7E94FF2D
:102FD000806154CF9091CB02892F8E7F90FF8160CA
:102FE0004DCF9091CC02892F877F93FF88604CCF83
:102FF00085E31BC38091B401811104C089E20E9462
:10300000D00915C385E3FBCF8091B70280FF19C0BB
:10301000282F2E7F2093B7023091B8024091B90239
:103020005091BA026091BB027091BC028091BD02C6
:103030009091BE020E94C40F109243020E94DE0CC7
:1030400082CE81608093B70261E086950E94E41091
:103050007ACE4EE251E168E371E10E945F0673CEE1
:1030600048E351E16EE271E1F8CF4CE950E166EAE4
:1030700070E1F3CF46EA50E16CE970E1EECF42E84F
:1030800050E16FE870E1E9CF4FE850E162E870E1AC
:10309000E4CF48E650E165E770E1DFCF45E750E176
:1030A00068E670E1DACF40EB50E16AEC70E1D5CF31
:1030B0004AEC50E160EB70E1D0CF61E081E0C6CF37
:1030C00065E082E00E9443113ECE68E086E0FACFE0
:1030D0006EE089E0F7CF64E18FE0F4CF67E185E14E
:1030E000F1CF61E088E1B2CF62E289E1EBCF61E04C
:1030F00083E2ACCF6AE285E2E5CF0E94D3112FEFE5
:1031000034E38CE0215030408040E1F700C0000003
:103110000E94BA0C6FEF7FEF90E080E00E94D8250C
:103120000E94B3148091CC0282FB882780F991E041
:1031300089270E946711F8018581C081D181882388
:1031400009F449C0CE010E94390AF82E682FCE0139
:103150000E94AD0ABE018F2D0E948C080E94AB0810
:10316000D82EC92FA82EF801C580B680B2943FE0B2
:10317000B3228091E1018770E9F0DC2DCC20D9F0F9
:10318000892F807F803451F080E28D0D883090F05F
:10319000B11004C0892F807E803261F08091CC0212
:1031A00082FF08C082E00E94FA0A8091E1018770E4
:1031B000D1E009F0D0E0FC2EF2942FE0F222FBE007
:1031C000FF1508F46EC0EF2DF0E0EA57F94D0C94AE
:1031D0009E2480E0AECFCE010E947A0AF82EBACFAC
:1031E0002C2F2F70E22EC07F19F0E29490EFE9228D
:1031F000CC20B9F0EE2069F080E28D0D883010F01F
:10320000A11009C080910402E82AE09204020E9401
:103210007E118D2D44C080910302E82AE0920302C2
:10322000F6CF8D2D0E94DA14EE20D9F180E28D0DBB
:10323000883010F0A11004C08E2D0E94C90906C06C
:10324000E09480910302E822E09203020E947E1142
:1032500028C03C2F3F70E32EC07FC03219F0E294AB
:1032600080EFE822AA2059F081E0A81609F47BC07B
:10327000CC2009F487C0BB2009F449C0CACF809193
:10328000CC0282FD40C0CC20C1F1EE2039F080910B
:103290000402E82AE09204020E947E1180E00E946B
:1032A00034152F2D2850330B2430310520F40E9483
:1032B0009A050E94210CDD23A9F08091E10180FD97
:1032C00011C0F80115828695869586950E94110B8E
:1032D000C8010E9449168091E101869586958695E0
:1032E0000E94E80A20E0F8014081518162817381E7
:1032F000848195810E94280C35CD80E00E94DA14EB
:10330000EE2079F299CFCC20A1F0B11004C08E2D1F
:103310000E94D014C6CF91E0B912C3CF80910202AF
:103320009E2D9823E91609F4BCCFE82AE092020208
:10333000B8CFB110B6CF8E2D0E94C9149091020261
:103340008E2D892329F08E2D80958923809302026A
:103350008091B5019E2D982309F4A3CFE094E82233
:10336000E092B5019ECFCC2029F0E5E0EB1508F402
:1033700098CFCDCFF4E0FB1508F493CF8E2D0E94AB
:10338000C9148FCFBB20D1F329E3A21209C03FEFAC
:1033900087EE93E0315080409040E1F700C000009C
:1033A0008D2D0E94DA147DCF8C2F869586958370A3
:1033B00069F0813009F075CF8D2D9C2F9370C1106D
:1033C00002C080E090E00E9450056BCF8D2D9C2FB5
:1033D0009370C11002C080E090E00E94750561CF3B
:1033E0006C2D8D2D0E94490B5CCF8C2F837009F0C2
:1033F0003FC0C11056CF4D2D429546954770440FA2
:10340000440F2D2D2F7030E0042E02C0220F331FE9
:103410000A94E2F790E080E0D4FE09C08FE090E0EB
:1034200002C0880F991F4A95E2F780959095C6953E
:10343000C695C370C23099F078F44091050250915E
:103440000602C13039F0822B932B842395230E94EE
:10345000210B27CF242B352B822B932BF8CF822BBC
:10346000932B209105023091060282279327EFCFFC
:103470008695CC2011F08C2F8170882309F411CF10
:103480004D2D429546954770440F440F2D2D2F70BA
:1034900030E0042E02C0220F331F0A94E2F790E0BE
:1034A00080E0D4FE09C08FE090E002C0880F991F31
:1034B0004A95E2F780959095C695C695C370C2303F
:1034C00099F078F44091160250911702C13039F00A
:1034D000822B932B842395230E94E30AE2CE242B94
:1034E000352B822B932BF8CF822B932B2091160216
:1034F0003091170282279327EFCFCF70CC2029F08D
:103500008C2F0E94110B8D2D03CF8D2D0E94C9147D
:103510008C2F0E94E80AC5CE8D2DE2EFAE1699F1F0
:10352000EA1570F0F0EFAF16D1F021EFA21691F08E
:10353000CC2009F45BC0B1106CCE8C2F8F7127C0EA
:1035400033EFA31639F194EFA912F2CF8091CC0298
:1035500082FD2EC08C2F8F71CC20D9F218C0CC20C8
:1035600069F0E4E0EB1508F49CCECF7181E090E0C7
:1035700002C0880F991FCA95E2F7B8CFF5E0FB1596
:1035800008F48FCEF2CF8C2F8F71C110C2CF0E9462
:10359000110B87CE90E080E0CC2009F49DCFCF7155
:1035A00081E090E002C0880F991FCA95E2F794CF9E
:1035B000CC2089F0CF718C2F0E94110B8091CC020E
:1035C00082FF07C028E0C29FC0011124836080935E
:1035D000E1018C2FDCCF81E00E94FA0A31E03B153B
:1035E00008F05FCE82E00E94FA0A5BCEBB2059F061
:1035F000893309F0D5CE8FEF97EEE3E0815090400C
:10360000E040E1F7CBCE8C2F8F7183CFC631FCE742
:10361000DF0781F4809104028A7A91E009F490E056
:103620009093B4018111E4CC89E20E94FB090E94CD
:103630007E1189CBC3303CE7D30709F46BCD50F43E
:10364000C1159CE7D90709F458CDC130DC4709F40E
:1036500067CD71CDCB35FCE7DF0709F4BACDCC35AA
:103660002CE7D20709F45ECDCA35DC4709F063CDFB
:1036700081E05FCDFE01E851FC47E730F10508F439
:1036800038CBC6312CE7D20709F4B4CC80910402C0
:103690008272FE01E052F847E531F10508F04BCDAA
:1036A000EE56F94D0C949E24CF93DF938091E00168
:1036B000807F09F04DC08091DF01882309F448C064
:1036C000E09135035091FC02C091DB01D091DA0109
:1036D0006091DC017091DD0147E05E17C9F18E2F2A
:1036E00090E0E49FF0011124E350FD4F2481222358
:1036F00091F1489FF001499FF00D1124DF01A35083
:10370000BD4F11962C9111972C1325C02C912D1380
:1037100022C015962C91159721111DC012962D913E
:103720003C91261B370B283C3105A8F48091E00121
:103730008F7080618093E001ED5FFC4F80818F701E
:10374000806180838AED91E00E9449160E942F0AD1
:10375000DF91CF910895FC013196E770BECFA4E1CF
:10376000B0E0E5EBFBE10C94B9248C0186E0F801B4
:10377000DE011F9601900D928A95E1F7F801848190
:10378000E5809AEDA92E91E0B92E9091DE0191117C
:1037900028C0882319F1EE20F1F0C8010E94260B01
:1037A000F82E8823C1F087E0F801D50101900D9231
:1037B0008A95E1F78091DE01813031F48091DA0160
:1037C0009091DB010E946D0A0E94541B8F2D64961C
:1037D000ECE00C94D524C8010E944916FF24F39410
:1037E000F5CFD080C18082809380F090DF0120915E
:1037F000DC013091DD01A401421B530BFF2009F4D1
:10380000D9C0483C510508F092C08823F9F2909144
:10381000DB018091E001282F207F09F056C0C912FA
:1038200014C09091DA01D91210C0E11048C08F7015
:1038300080618093E0018AED91E00E9449168091B9
:10384000E001F8018683F12CC1CFE11038C06C2D66
:103850008D2D0E94B9036C2D8D2D0E94B903E82E89
:103860008111F1CFDF86C88A8F8598890E946D0A01
:10387000292F22952F70243058F49F70223088F021
:10388000992399F0F8019681907F79F4FE2C9ECFD0
:103890002A5F2F70223068F0C8010E944916EF2C71
:1038A000F5CF992311F0882389F3805E883070F377
:1038B000F3CF803F58F3815F833070F7E7CF80917B
:1038C000E00181608093E001BECFC91207C09091F2
:1038D000DA01D91203C0EE2009F48DC0C8010E949C
:1038E000260B882309F477CFEE2009F474CF80915A
:1038F000E001803288F02091DA013091DB013987D4
:1039000028879B868A869091DE019C871D868E87FC
:10391000CE0108960E94491687E0F801AAEDB1E0B1
:1039200001900D928A95E1F70E94541B57CF909118
:10393000E001292F207F51F48AED91E00E94491681
:1039400087E0F50111928A95E9F77DCF882309F484
:103950003DCF8091DB018C1110C08091DA01D8122B
:103960000CC0E1100AC09683C8010E94491687E086
:10397000F50111928A95E9F729CFC8010E94260B1B
:10398000882309F428CFEE2009F425CF8091E001A7
:10399000803210F22091DA013091DB013A832983E1
:1039A0009C828B829091DE019D831E828F83CE014B
:1039B0000196B0CF483C5105D0F6882309F40ECFCC
:1039C000FE2CEE2009F407CF8091DB018C1120C082
:1039D0008091DA01D8121CC08091E00180FD0FC0F7
:1039E000982F907F61F08683903F31F0982F907FE1
:1039F000905F8F70892B8683C8010E94491687E0EB
:103A0000F801AAEDB1E001900D928A95E1F7DECEC2
:103A1000C8010E94260B81117FCF8091E001816057
:103A20008093E001C8010E944916D0CEABE1B0E01E
:103A3000ECE1FDE10C94C1244E8B5F8B688F798F94
:103A40008A8F9B8F192F9111109203021D8A86E095
:103A5000FE017696DE011F9601900D928A95E1F7A0
:103A60000A8D002341F021E04F85588969897A89C0
:103A7000C8010E94280C0B8B1C8B87E0FE013F962F
:103A8000DE01189601900D928A95E1F7CE01089615
:103A90000E94AF1B81112AC087E0FE013896DE012B
:103AA000119601900D928A95E1F78C858823F1F0AB
:103AB0002091FC0230E0C90101968770992740915E
:103AC000350348171906E9F097E0929FD001939FBC
:103AD000B00D1124A350BD4FFE01319601900D92FF
:103AE0009A95E1F78093FC020E942F0A17E08091DB
:103AF00035039091FC02891312C06B96E4E00C949C
:103B0000DD240E94D3111092FC021092350387E04D
:103B1000EAEDF1E0DF011D928A95E9F7E7CF819F99
:103B2000C001112483509D4F0E94AF1B882329F3AD
:103B30008091350390E00196877099278093350333
:103B4000D6CFA6E0B0E0E7EAFDE10C94C1240E94E4
:103B500044058C018091070290910802801791071B
:103B600081F019821A820E944405682F49815A8186
:103B7000792F80E090E00E94161D109308020093B8
:103B800007022696E4E00C94DD24AAE0B0E0EBEC1A
:103B9000FDE10C94B5248E010F5F1F4F8AE0F80100
:103BA00011928A95E9F794E5E92E91E0F92E6801E2
:103BB00029E5422E21E0522E66246394712C47E6BB
:103BC000842E41E0942EF70181917F018F3F09F40B
:103BD00045C0F894E82FE295EF70F0E021A18F70D6
:103BE000A30102C0440F551F8A95E2F7CA01922F24
:103BF000982B91A392A18095892382A3789400C0E9
:103C0000E9E5F1E021E030E0B12CA12C41914F3FFA
:103C100009F464C0A42FA295AF70B0E090968C9187
:103C200090E04F7002C0959587954A95E2F780FD28
:103C300055C0C901A82AB92A220F331F8E169F0624
:103C400029F7F701319780818F3F11F00E94840797
:103C500050EA5A95F1F7F601B182A082F2E0CF0E58
:103C6000D11C4E145F0409F0AECF4AE050E0B80119
:103C70008CE092E00E948925892B99F18AE0F80175
:103C8000ACE0B2E001900D928A95E1F781E080937B
:103C90000B020E94440590930A02809309028091CE
:103CA000090290910A020E9435050597F0F04AE05A
:103CB00050E06CE072E089E192E00E948925892B56
:103CC000C9F08AE0ECE0F2E0A9E1B2E001900D92E7
:103CD0008A95E1F781E010920B0208C090E080E045
:103CE000A9CF80910B028111DACF80E02A96E0E122
:103CF0000C94D12480E0EFCFA8E0B0E0E2E8FEE150
:103D00000C94C32466EE7EEF90E080E00E94D825FC
:103D100060E082E090E00E94BA2560E083E090E0FD
:103D20000E94BA25109206021092050260E074E12A
:103D300084E090E00E94D82560E086E090E00E9458
:103D4000BA256FEF87E090E00E94BA2540E050E08E
:103D5000BA0188E090E00E94CC2560E084E290E027
:103D60000E94BA2560E087E190E00E94BA2560E0F9
:103D70008CE090E00E94BA2560E08DE090E00E9427
:103D8000BA2519821A821B821C821D821E821F8202
:103D9000188648E050E068E170E0CE0101960E948C
:103DA000AA2540E050E0BA0180E290E00E94CC25D4
:103DB00040E050E0BA018FE090E00E94CC2540E066
:103DC00050E0BA0183E190E00E94CC252896E2E021
:103DD0000C94DF2490E080E00E94A425863E9E4F54
:103DE00051F00E947C1E8091BF0284708961809393
:103DF000BF020E94280F86E090E00E9496258093E3
:103E0000BF02803220F0877088618093BF0290915A
:103E1000BF02892F817090FF04C0892F86958695F7
:103E200086950E94A70508951F920F920FB60F92D4
:103E300011242F933F934F935F936F937F938F93AF
:103E40009F93AF93BF93CF93DF93EF93FF93D09163
:103E5000E900DF708091EC00C82FC17080FDC0E8E0
:103E60001092E9008091F000877F8093F0007894B1
:103E70000E9402121092E9008091F0008860809305
:103E8000F000CD2BCF70C093E900FF91EF91DF914F
:103E9000CF91BF91AF919F918F917F916F915F91E2
:103EA0004F913F912F910F900FBE0F901F9018953B
:103EB0001F920F920FB60F9211242F933F934F939F
:103EC0005F936F937F938F939F93AF93BF93EF9382
:103ED000FF938091E10082FF09C08091E20082FFA0
:103EE00005C08091E1008B7F8093E1008091DA0032
:103EF00080FF24C08091D80080FF20C08091DA002C
:103F00008E7F8093DA008091D90080FF9DC080E190
:103F100089BD82E189BD09B400FEFDCF81E08093B7
:103F2000F2028091CD02811109C00E94D8030E9443
:103F300079048091E20084608093E2008091E10046
:103F400080FF17C08091E20080FF13C08091E200E3
:103F50008E7F8093E2008091E20080618093E20096
:103F60008091D80080628093D80019BC85E080934E
:103F7000F2028091E10084FF2BC08091E20084FF77
:103F800027C080E189BD82E189BD89B5982F9170F4
:103F900080FFFBCF8091D8008F7D8093D8008091E7
:103FA000E1008F7E8093E1008091E2008F7E80931C
:103FB000E2008091E20081608093E2008091F30250
:103FC000882309F447C084E08093F2028091F202D2
:103FD0008091E10083FF27C08091E20083FF23C02E
:103FE0008091E100877F8093E10082E08093F2027C
:103FF0001092F3028091E1008E7F8093E100809126
:10400000E2008E7F8093E2008091E20080618093E5
:10401000E20042E060E080E00E9447048091F0000E
:1040200088608093F000FF91EF91BF91AF919F91D5
:104030008F917F916F915F914F913F912F910F9051
:104040000FBE0F901F90189519BC1092F20210929B
:10405000CD0274CF8091E30087FD93E09093F2024C
:10406000B5CF78941F921FB61F9211248F939F9300
:10407000AF93BF938091C7029091C802A091C902EB
:10408000B091CA020196A11DB11D8093C702909301
:10409000C802A093C902B093CA02BF91AF919F9189
:1040A0008F911F901FBE1F9018951F921FB61F92D1
:1040B00011248F939F93AF93BF938091C602811178
:1040C00013C08091C7029091C802A091C902B0911B
:1040D000CA024196A11DB11D8093C7029093C802E8
:1040E000A093C902B093CA02BF91AF919F918F91E3
:1040F0001F901FBE1F901895CDB7DEB72C970FB637
:10410000F894DEBF0FBECDBF85B7806885BF85B789
:10411000806885BF84B7877F84BF0FB6F894A89561
:1041200080916000886180936000109260000FBEF3
:1041300080E890E00FB6F89480936100909361005E
:104140000FBE82E897E090939301809392010E94C2
:10415000D8030E9479048091E20084608093E20099
:1041600078948091F2028823A1F01091E9001F70E9
:104170009091EC00892F817090FD80E8182B1092AF
:10418000E9008091E80083FD0E9402121F701093E5
:10419000E90082E084BD93E095BD9AEF97BD8093DE
:1041A0006E0004E511E099E5E92E91E0F92ED801C1
:1041B0008D918D018F3F11F00E948407E016F1066A
:1041C000B1F709E511E0F80181918F018F3F11F0FE
:1041D0000E948407F1E007361F07A9F78AE0E9E1AA
:1041E000F2E0DF01282F1D922A95E9F7ECE0F2E0DA
:1041F000DF011D928A95E9F790E080E00E94A425F6
:10420000863E9E4F11F00E947C1E82E090E00E944C
:1042100096258093230284E090E00E94A425909349
:10422000CC028093CB020E94C51DEFEFF6E721E0A0
:10423000E150F0402040E1F700C000000E94C51DA1
:104240008091190280FF08C06FEF7FEF90E080E05F
:104250000E94D8250E94BA0C83E090E00E94962527
:1042600090E00E94210B269A2E9A279A2F988AE096
:104270008093800089E1809381008FEF9FEF90937E
:104280008700809386000E94EA1E0E94EA1E8091A9
:104290001802811176C090E080E00E94A425863E3D
:1042A0009E4F21F00E947C1E0E94531188E090E0F6
:1042B0000E949E254B015C0184E290E00E949625BD
:1042C000282F30E040E050E060E070E080E090E0D7
:1042D00000E20E94EA24282939294A295B292093EF
:1042E000B7023093B8024093B9025093BA02609378
:1042F000BB027093BC028093BD029093BE022E7FDE
:1043000089F50E94531188E090E00E949E256B0180
:104310007C0184E290E00E949625282F30E040E066
:1043200050E060E070E080E090E00E94EA24B22F6C
:10433000A32FF42FE52F5B0197018601BC29A12B48
:10434000FE29E32BB093B702A093B802F093B90211
:10435000E093BA026093BB02B092BC028093BD02AC
:104360009093BE020E946606109243028091B702AB
:1043700080FF04C060E086950E94E41081E0809395
:10438000180284E091E09093C3028093C2028EE20F
:10439000682E82E0782E4424439422242394809132
:1043A000F20200E112E1853009F49DC00E94C51DB2
:1043B00014E2A12E12E0B12E09E1802E02E0902E2F
:1043C000D401F501219131918D919D916E167F0659
:1043D00009F497C028173907A9F3512CD4010D917E
:1043E0001D914D01F501C190D1905F01C016D1061C
:1043F00059F1312CEE24E394F12CC026D126C601CC
:104400008E219F21892BB1F03F8258860E9444055E
:104410009A8789872B8691E098012E213F21232BB3
:1044200009F490E09C874F81588569857A858B8552
:104430000E94161D3394EE0CFF1CFEE03F12DFCFEE
:10444000F501329711830083539425E05212C6CFB1
:104450008FB7F8944091C7025091C8026091C90289
:104460007091CA028FBF53C08091F202843051F123
:1044700080E00E94480680E00E94210C1092C60253
:10448000E8E1F0E020E40FB6F894A895E09360002E
:104490000FBE2093600083B7817F846083BF83B7A2
:1044A000816083BF7894889583B78E7F83BF0FB672
:1044B000F894A895809160008861809360001092C4
:1044C00060000FBE8091F102882369F00E94C51D33
:1044D000E9E1F2E081919191892B09F0B8C182E084
:1044E000E332F807B9F78091F202853009F4BCCFC6
:1044F0000E94D3110E94EA1E0E949A050E94210C7C
:1045000055CF2817390709F068CF0E94A11D809167
:1045100043028823D1F180914202E091B702E695EF
:10452000E81BE0933E02823009F019C1F0E0E75841
:10453000FC4FE4910E2F10E0F4E1EF2EFFE0FF2E90
:1045400080913F02882361F010923F020E9444054F
:1045500090933D0280933C021092410210924002DF
:104560000E944405E0913C02F0913D028E1B9F0B9E
:104570008F3F9F4750F4E00FF11FF0933D02E0930F
:104580003C028CE392E0F701099586E0E6E3F2E075
:10459000DE01119601900D928A95E1F7D0903702D5
:1045A000F090380200913902E0903A0210913B02FB
:1045B000109238021092390210923A0210923B0285
:1045C000802F8F2909F445C08091340290913502E3
:1045D0000E9435059C0190912F02992309F457C13F
:1045E00025313105B0F19F3F19F09F5F90932F0265
:1045F000FF2059F00E9454079FEF1F140CF491E024
:10460000899F802D112480933802002359F00E9445
:10461000540791E010160CF09FEF899F802D112414
:104620008093390280913802882399F0C090390232
:10463000CC2079F00E947407882309F4FCC0809391
:1046400038028C2D0E947407882309F4F7C08093E8
:1046500039028E2D812B09F445C080913202909150
:1046600033020E9435059C0190913002992309F490
:1046700009C121353105B0F19F3F19F09F5F90933B
:104680003002EE2059F00E9432079FEF1E140CF406
:1046900091E0899F802D112480933A02112359F0D3
:1046A0000E94320791E011160CF09FEF899F802D38
:1046B000112480933B0280913A02882399F0E09084
:1046C0003B02EE2079F00E947407882309F4B9C0F8
:1046D00080933A028E2D0E947407882309F4B4C097
:1046E00080933B0280913702D81217C08091380224
:1046F000882311F08F1111C020913902222311F06B
:1047000002130BC090913B02992311F0191305C0BD
:1047100030913A02332309F4B0C00E940B0786E0BF
:10472000FE013196A6E3B2E001900D928A95E1F781
:104730000E949A0590912E02891709F430CE809339
:104740002E029FB7F8944091C7025091C802609121
:10475000C9027091CA029FBF0E94210C1CCE8630F4
:1047600059F4F0E0EA58FC4FE4910E2F10E0E4E039
:10477000EE2EEFE0FE2EE4CE893061F4E695F0E017
:10478000ED58FC4FE4910E2F10E078E7E72E7EE025
:10479000F72ED6CE8F3061F4E695F0E0E059FC4F6D
:1047A000E4910E2F10E063E1E62E6EE0F62EC8CE07
:1047B000853159F4F0E0E359FC4FE4910E2F10E0FD
:1047C00055ECE52E5DE0F52EBBCE08E210E02AE4C4
:1047D000E22E2DE0F22E883109F4B2CE833249F474
:1047E000EBE6F3E00591149143EBE42E4EE0F42E5A
:1047F000A7CE04EF11E093E1E92E9DE0F92E84327B
:1048000009F49ECE853281F48E2F63E00E945C24F1
:10481000E92FF0E0E859FC4FE4910E2F10E03EE262
:10482000E32E3FE0F32E8CCE00ED17E085E6E82E78
:1048300086E0F82E85CE4092380203CF40923902AE
:1048400008CF40923A0246CF40923B024BCF09BD7F
:1048500019BD09B400FEFDCF8091D8008F7D8093F3
:10486000D8008091E00082608093E0008091E000B9
:1048700081FDFCCF0E94D31136CE822B892B09F407
:104880004ECF4BCF2B30310508F0F8CE2BCF2B304D
:10489000310508F0AACEDDCEDB018F939F930E94F5
:1048A0000D26BF91AF91A29F800D911DA39F900DEA
:1048B000B29F900D11240895991B79E004C0991FAF
:1048C000961708F0961B881F7A95C9F7809508956A
:1048D00087FB082E062687FD819567FD61950E945E
:1048E0005C240EF4919507FC81950895AA1BBB1BCF
:1048F00051E107C0AA1FBB1FA617B70710F0A61BE0
:10490000B70B881F991F5A95A9F780959095BC0100
:10491000CD01089597FB072E16F4009407D077FD7C
:1049200009D00E94762407FC05D03EF4909581952D
:104930009F4F0895709561957F4F0895EE0FFF1F6B
:104940000590F491E02D09940E944226332312F43D
:104950008A1B9B0B0C94AE240E944226B7FF08953D
:10496000821B930B08952F923F924F925F926F920A
:104970007F928F929F92AF92BF92CF92DF92EF92EF
:10498000FF920F931F93CF93DF93CDB7DEB7CA1B70
:10499000DB0B0FB6F894DEBF0FBECDBF09942A889B
:1049A000398848885F846E847D848C849B84AA8443
:1049B000B984C884DF80EE80FD800C811B81AA81D0
:1049C000B981CE0FD11D0FB6F894DEBF0FBECDBF9B
:1049D000ED010895002E083090F0982F872F762F44
:1049E000652F542F432F322F22270850F4CF220F48
:1049F000331F441F551F661F771F881F991F0A9575
:104A0000B2F7002D089597FD1094002E083098F00D
:104A10000850232F342F452F562F672F782F892F9B
:104A2000912DF4CF15949795879577956795579520
:104A30004795379527950A95AAF71124002D0895D3
:104A40008F929F92AF92BF92CF92DF92EF92FF929E
:104A5000CF93DF93EC01688179818A819B81611515
:104A600071058105910521F464E279ED8BE597E00C
:104A70002DE133EF41E050E00E94EE2549015A015B
:104A80009B01AC01A7EAB1E40E940D266B017C01F9
:104A9000ACEEB4EFA50194010E941B26DC01CB0112
:104AA0008C0D9D1DAE1DBF1DB7FF03C00197A10951
:104AB000B04888839983AA83BB839F77DF91CF9186
:104AC000FF90EF90DF90CF90BF90AF909F908F902E
:104AD00008950E942025089580E091E00E942025FD
:104AE0000895B0E0A0E08093000190930101A093AD
:104AF0000201B09303010895FC014150504030F091
:104B000001900616D1F73197CF010895882799278C
:104B10000895FB01DC0104C08D910190801921F4FE
:104B200041505040C8F7881B990B0895F999FECF62
:104B300092BD81BDF89A992780B50895A6E1B0E0AD
:104B400044E050E00C94E025A8E1B0E042E050E001
:104B50000C94E025DC01A40FB51F4150504048F0F3
:104B6000CB01840F951F2E910E94BB2541505040D0
:104B7000D0F70895262FF999FECF92BD81BDF89AFE
:104B8000019700B4021639F01FBA20BD0FB6F89491
:104B9000FA9AF99A0FBE08950396272F0E94BB2513
:104BA0000E94BA25252F0E94BB25242F0C94BB25DB
:104BB0000196272F0E94BB250C94BA25DC01CB015E
:104BC000FC01F999FECF06C0F2BDE1BDF89A31961D
:104BD00000B40D9241505040B8F70895052E97FB50
:104BE0001EF400940E94052657FD07D00E9420263F
:104BF00007FC03D04EF40C94052650954095309553
:104C000021953F4F4F4F5F4F089590958095709538
:104C100061957F4F8F4F9F4F08950E944226A59F19
:104C2000900DB49F900DA49F800D911D11240895A7
:104C3000B7FF0C940D260E940D26821B930B08953E
:104C4000A1E21A2EAA1BBB1BFD010DC0AA1FBB1F90
:104C5000EE1FFF1FA217B307E407F50720F0A21B02
:104C6000B30BE40BF50B661F771F881F991F1A946F
:104C700069F760957095809590959B01AC01BD0199
:104C8000CF010895A29FB001B39FC001A39F700DF3
:104C9000811D1124911DB29F700D811D1124911D44
:104CA0000895F894FFCFE1120913A1140913A11478
:104CB0003C135D13A1145A1467140F17131704172C
:104CC0000B1717171B171F177517EA177D174717AD
:104CD0004B1781174F17851791175B17E3175F174E
:104CE000951763179917C11767179D17C8176D1781
:104CF000A317AB175317891757178D177117A717D6
:104D0000B717D117E11741177917F117F018F018F5
:104D100029192919D419F01951195119F5197D1AA0
:104D20008C1A8C1A04182918301835183A183F189C
:104D3000441849184E18531858185D18601865180B
:0E4D400068186B186E187118741877187A18A6
:104D4E00010000003205960C8F0C880C01191A1BFD
:104D5E001C1D1E1F20212201020101818283E200FF
:104D6E00E900EA00B500B600B700CD008301CC0023
:104D7E008A019201940121022302240225022602B5
:104D8E0027022A02B300B4006F0070009F01CB010E
:104D9E009F02A0023332313094F6F5F4F1C69091B1
:104DAE00929395969734350001020202020606068A
:104DBE000909090909090F0F0F0F0F0F15151518FE
:104DCE001919191919191919191923242525252500
:024DDE00252589
:00000001FF
